{
  "contractName": "Ticketing",
  "abi": [
    {
      "inputs": [],
      "stateMutability": "nonpayable",
      "type": "constructor"
    },
    {
      "inputs": [
        {
          "internalType": "uint256",
          "name": "",
          "type": "uint256"
        }
      ],
      "name": "events",
      "outputs": [
        {
          "internalType": "address",
          "name": "organizer",
          "type": "address"
        },
        {
          "internalType": "string",
          "name": "brandName",
          "type": "string"
        },
        {
          "internalType": "string",
          "name": "starting",
          "type": "string"
        },
        {
          "internalType": "string",
          "name": "destination",
          "type": "string"
        },
        {
          "internalType": "uint256",
          "name": "date",
          "type": "uint256"
        },
        {
          "internalType": "uint256",
          "name": "price",
          "type": "uint256"
        },
        {
          "internalType": "uint256",
          "name": "ticketCount",
          "type": "uint256"
        },
        {
          "internalType": "uint256",
          "name": "ticketRemain",
          "type": "uint256"
        }
      ],
      "stateMutability": "view",
      "type": "function",
      "constant": true
    },
    {
      "inputs": [
        {
          "internalType": "uint256",
          "name": "",
          "type": "uint256"
        }
      ],
      "name": "profiles",
      "outputs": [
        {
          "internalType": "address",
          "name": "userAccount",
          "type": "address"
        },
        {
          "internalType": "string",
          "name": "name",
          "type": "string"
        },
        {
          "internalType": "string",
          "name": "email",
          "type": "string"
        },
        {
          "internalType": "string",
          "name": "phone",
          "type": "string"
        },
        {
          "internalType": "string",
          "name": "pic",
          "type": "string"
        }
      ],
      "stateMutability": "view",
      "type": "function",
      "constant": true
    },
    {
      "inputs": [
        {
          "internalType": "address",
          "name": "",
          "type": "address"
        },
        {
          "internalType": "uint256",
          "name": "",
          "type": "uint256"
        }
      ],
      "name": "tickets",
      "outputs": [
        {
          "internalType": "uint256",
          "name": "",
          "type": "uint256"
        }
      ],
      "stateMutability": "view",
      "type": "function",
      "constant": true
    },
    {
      "inputs": [
        {
          "internalType": "uint256",
          "name": "",
          "type": "uint256"
        }
      ],
      "name": "transactions",
      "outputs": [
        {
          "internalType": "string",
          "name": "brandName",
          "type": "string"
        },
        {
          "internalType": "address",
          "name": "buyer",
          "type": "address"
        },
        {
          "internalType": "address",
          "name": "seller",
          "type": "address"
        },
        {
          "internalType": "uint256",
          "name": "paid",
          "type": "uint256"
        },
        {
          "internalType": "uint256",
          "name": "quantity",
          "type": "uint256"
        },
        {
          "internalType": "uint256",
          "name": "jounryDate",
          "type": "uint256"
        },
        {
          "internalType": "uint256",
          "name": "issueDate",
          "type": "uint256"
        },
        {
          "internalType": "string",
          "name": "source",
          "type": "string"
        },
        {
          "internalType": "string",
          "name": "destination",
          "type": "string"
        }
      ],
      "stateMutability": "view",
      "type": "function",
      "constant": true
    },
    {
      "inputs": [
        {
          "internalType": "string",
          "name": "brandName",
          "type": "string"
        },
        {
          "internalType": "string",
          "name": "starting",
          "type": "string"
        },
        {
          "internalType": "string",
          "name": "destination",
          "type": "string"
        },
        {
          "internalType": "uint256",
          "name": "date",
          "type": "uint256"
        },
        {
          "internalType": "uint256",
          "name": "price",
          "type": "uint256"
        },
        {
          "internalType": "uint256",
          "name": "ticketCount",
          "type": "uint256"
        }
      ],
      "name": "createEvent",
      "outputs": [],
      "stateMutability": "nonpayable",
      "type": "function"
    },
    {
      "inputs": [
        {
          "internalType": "uint256",
          "name": "id",
          "type": "uint256"
        },
        {
          "internalType": "uint256",
          "name": "quantity",
          "type": "uint256"
        },
        {
          "internalType": "uint256",
          "name": "amount",
          "type": "uint256"
        }
      ],
      "name": "buyTicket",
      "outputs": [],
      "stateMutability": "payable",
      "type": "function",
      "payable": true
    },
    {
      "inputs": [],
      "name": "getEvents",
      "outputs": [
        {
          "components": [
            {
              "internalType": "address",
              "name": "organizer",
              "type": "address"
            },
            {
              "internalType": "string",
              "name": "brandName",
              "type": "string"
            },
            {
              "internalType": "string",
              "name": "starting",
              "type": "string"
            },
            {
              "internalType": "string",
              "name": "destination",
              "type": "string"
            },
            {
              "internalType": "uint256",
              "name": "date",
              "type": "uint256"
            },
            {
              "internalType": "uint256",
              "name": "price",
              "type": "uint256"
            },
            {
              "internalType": "uint256",
              "name": "ticketCount",
              "type": "uint256"
            },
            {
              "internalType": "uint256",
              "name": "ticketRemain",
              "type": "uint256"
            }
          ],
          "internalType": "struct Ticketing.Event[]",
          "name": "",
          "type": "tuple[]"
        }
      ],
      "stateMutability": "view",
      "type": "function",
      "constant": true
    },
    {
      "inputs": [],
      "name": "getTransactions",
      "outputs": [
        {
          "components": [
            {
              "internalType": "string",
              "name": "brandName",
              "type": "string"
            },
            {
              "internalType": "address",
              "name": "buyer",
              "type": "address"
            },
            {
              "internalType": "address",
              "name": "seller",
              "type": "address"
            },
            {
              "internalType": "uint256",
              "name": "paid",
              "type": "uint256"
            },
            {
              "internalType": "uint256",
              "name": "quantity",
              "type": "uint256"
            },
            {
              "internalType": "uint256",
              "name": "jounryDate",
              "type": "uint256"
            },
            {
              "internalType": "uint256",
              "name": "issueDate",
              "type": "uint256"
            },
            {
              "internalType": "string",
              "name": "source",
              "type": "string"
            },
            {
              "internalType": "string",
              "name": "destination",
              "type": "string"
            }
          ],
          "internalType": "struct Ticketing.Transaction[]",
          "name": "",
          "type": "tuple[]"
        }
      ],
      "stateMutability": "view",
      "type": "function",
      "constant": true
    },
    {
      "inputs": [
        {
          "internalType": "address",
          "name": "_userAccount",
          "type": "address"
        },
        {
          "internalType": "string",
          "name": "_name",
          "type": "string"
        },
        {
          "internalType": "string",
          "name": "_email",
          "type": "string"
        },
        {
          "internalType": "string",
          "name": "_phone",
          "type": "string"
        },
        {
          "internalType": "string",
          "name": "_pic",
          "type": "string"
        }
      ],
      "name": "createProfile",
      "outputs": [],
      "stateMutability": "nonpayable",
      "type": "function"
    },
    {
      "inputs": [],
      "name": "allProfiles",
      "outputs": [
        {
          "components": [
            {
              "internalType": "address",
              "name": "userAccount",
              "type": "address"
            },
            {
              "internalType": "string",
              "name": "name",
              "type": "string"
            },
            {
              "internalType": "string",
              "name": "email",
              "type": "string"
            },
            {
              "internalType": "string",
              "name": "phone",
              "type": "string"
            },
            {
              "internalType": "string",
              "name": "pic",
              "type": "string"
            }
          ],
          "internalType": "struct Ticketing.Profile[]",
          "name": "",
          "type": "tuple[]"
        }
      ],
      "stateMutability": "view",
      "type": "function",
      "constant": true
    },
    {
      "inputs": [
        {
          "internalType": "address",
          "name": "_userAccount",
          "type": "address"
        }
      ],
      "name": "getProfile",
      "outputs": [
        {
          "components": [
            {
              "internalType": "address",
              "name": "userAccount",
              "type": "address"
            },
            {
              "internalType": "string",
              "name": "name",
              "type": "string"
            },
            {
              "internalType": "string",
              "name": "email",
              "type": "string"
            },
            {
              "internalType": "string",
              "name": "phone",
              "type": "string"
            },
            {
              "internalType": "string",
              "name": "pic",
              "type": "string"
            }
          ],
          "internalType": "struct Ticketing.Profile",
          "name": "",
          "type": "tuple"
        }
      ],
      "stateMutability": "view",
      "type": "function",
      "constant": true
    }
  ],
  "bytecode": "0x608060405234801561001057600080fd5b50336000806101000a81548173ffffffffffffffffffffffffffffffffffffffff021916908373ffffffffffffffffffffffffffffffffffffffff1602179055506133ea806100606000396000f3fe60806040526004361061009c5760003560e01c806383920e901161006457806383920e901461019f5780639ace38c2146101ca578063c36fe3d61461020f578063c4c6710d14610250578063dae7a13c1461026c578063fa2dfd7f146102a95761009c565b80630b791430146100a15780630f53a470146100e5578063404aa8f91461012257806342c4023f1461014d578063492a927114610176575b600080fd5b3480156100ad57600080fd5b506100c860048036038101906100c39190611f60565b6102d4565b6040516100dc98979695949392919061206d565b60405180910390f35b3480156100f157600080fd5b5061010c6004803603810190610107919061212c565b6104e4565b604051610119919061223d565b60405180910390f35b34801561012e57600080fd5b5061013761089b565b60405161014491906123ee565b60405180910390f35b34801561015957600080fd5b50610174600480360381019061016f9190612545565b610b2f565b005b34801561018257600080fd5b5061019d60048036038101906101989190612630565b610c3f565b005b3480156101ab57600080fd5b506101b4610dfa565b6040516101c191906128a6565b60405180910390f35b3480156101d657600080fd5b506101f160048036038101906101ec9190611f60565b6110e4565b604051610206999897969594939291906128c8565b60405180910390f35b34801561021b57600080fd5b5061023660048036038101906102319190611f60565b61131a565b60405161024795949392919061296a565b60405180910390f35b61026a600480360381019061026591906129d9565b6115a0565b005b34801561027857600080fd5b50610293600480360381019061028e9190612a2c565b611baf565b6040516102a09190612a6c565b60405180910390f35b3480156102b557600080fd5b506102be611bd4565b6040516102cb9190612bd4565b60405180910390f35b600281815481106102e457600080fd5b90600052602060002090600802016000915090508060000160009054906101000a900473ffffffffffffffffffffffffffffffffffffffff169080600101805461032d90612c25565b80601f016020809104026020016040519081016040528092919081815260200182805461035990612c25565b80156103a65780601f1061037b576101008083540402835291602001916103a6565b820191906000526020600020905b81548152906001019060200180831161038957829003601f168201915b5050505050908060020180546103bb90612c25565b80601f01602080910402602001604051908101604052809291908181526020018280546103e790612c25565b80156104345780601f1061040957610100808354040283529160200191610434565b820191906000526020600020905b81548152906001019060200180831161041757829003601f168201915b50505050509080600301805461044990612c25565b80601f016020809104026020016040519081016040528092919081815260200182805461047590612c25565b80156104c25780601f10610497576101008083540402835291602001916104c2565b820191906000526020600020905b8154815290600101906020018083116104a557829003601f168201915b5050505050908060040154908060050154908060060154908060070154905088565b6104ec611ed1565b60005b60038054905081101561085a578273ffffffffffffffffffffffffffffffffffffffff166003828154811061052757610526612c56565b5b906000526020600020906005020160000160009054906101000a900473ffffffffffffffffffffffffffffffffffffffff1673ffffffffffffffffffffffffffffffffffffffff1603610847576003818154811061058857610587612c56565b5b90600052602060002090600502016040518060a00160405290816000820160009054906101000a900473ffffffffffffffffffffffffffffffffffffffff1673ffffffffffffffffffffffffffffffffffffffff1673ffffffffffffffffffffffffffffffffffffffff16815260200160018201805461060790612c25565b80601f016020809104026020016040519081016040528092919081815260200182805461063390612c25565b80156106805780601f1061065557610100808354040283529160200191610680565b820191906000526020600020905b81548152906001019060200180831161066357829003601f168201915b5050505050815260200160028201805461069990612c25565b80601f01602080910402602001604051908101604052809291908181526020018280546106c590612c25565b80156107125780601f106106e757610100808354040283529160200191610712565b820191906000526020600020905b8154815290600101906020018083116106f557829003601f168201915b5050505050815260200160038201805461072b90612c25565b80601f016020809104026020016040519081016040528092919081815260200182805461075790612c25565b80156107a45780601f10610779576101008083540402835291602001916107a4565b820191906000526020600020905b81548152906001019060200180831161078757829003601f168201915b505050505081526020016004820180546107bd90612c25565b80601f01602080910402602001604051908101604052809291908181526020018280546107e990612c25565b80156108365780601f1061080b57610100808354040283529160200191610836565b820191906000526020600020905b81548152906001019060200180831161081957829003601f168201915b505050505081525050915050610896565b808061085290612cb4565b9150506104ef565b506040517f08c379a000000000000000000000000000000000000000000000000000000000815260040161088d90612d48565b60405180910390fd5b919050565b60606002805480602002602001604051908101604052809291908181526020016000905b82821015610b265783829060005260206000209060080201604051806101000160405290816000820160009054906101000a900473ffffffffffffffffffffffffffffffffffffffff1673ffffffffffffffffffffffffffffffffffffffff1673ffffffffffffffffffffffffffffffffffffffff16815260200160018201805461094990612c25565b80601f016020809104026020016040519081016040528092919081815260200182805461097590612c25565b80156109c25780601f10610997576101008083540402835291602001916109c2565b820191906000526020600020905b8154815290600101906020018083116109a557829003601f168201915b505050505081526020016002820180546109db90612c25565b80601f0160208091040260200160405190810160405280929190818152602001828054610a0790612c25565b8015610a545780601f10610a2957610100808354040283529160200191610a54565b820191906000526020600020905b815481529060010190602001808311610a3757829003601f168201915b50505050508152602001600382018054610a6d90612c25565b80601f0160208091040260200160405190810160405280929190818152602001828054610a9990612c25565b8015610ae65780601f10610abb57610100808354040283529160200191610ae6565b820191906000526020600020905b815481529060010190602001808311610ac957829003601f168201915b50505050508152602001600482015481526020016005820154815260200160068201548152602001600782015481525050815260200190600101906108bf565b50505050905090565b60036040518060a001604052808773ffffffffffffffffffffffffffffffffffffffff16815260200186815260200185815260200184815260200183815250908060018154018082558091505060019003906000526020600020906005020160009091909190915060008201518160000160006101000a81548173ffffffffffffffffffffffffffffffffffffffff021916908373ffffffffffffffffffffffffffffffffffffffff1602179055506020820151816001019081610bf39190612f14565b506040820151816002019081610c099190612f14565b506060820151816003019081610c1f9190612f14565b506080820151816004019081610c359190612f14565b5050505050505050565b428311610c81576040517f08c379a0000000000000000000000000000000000000000000000000000000008152600401610c7890613058565b60405180910390fd5b60008111610cc4576040517f08c379a0000000000000000000000000000000000000000000000000000000008152600401610cbb906130ea565b60405180910390fd5b60026040518061010001604052803373ffffffffffffffffffffffffffffffffffffffff16815260200188815260200187815260200186815260200185815260200184815260200183815260200183815250908060018154018082558091505060019003906000526020600020906008020160009091909190915060008201518160000160006101000a81548173ffffffffffffffffffffffffffffffffffffffff021916908373ffffffffffffffffffffffffffffffffffffffff1602179055506020820151816001019081610d9b9190612f14565b506040820151816002019081610db19190612f14565b506060820151816003019081610dc79190612f14565b506080820151816004015560a0820151816005015560c0820151816006015560e082015181600701555050505050505050565b60606004805480602002602001604051908101604052809291908181526020016000905b828210156110db578382906000526020600020906009020160405180610120016040529081600082018054610e5290612c25565b80601f0160208091040260200160405190810160405280929190818152602001828054610e7e90612c25565b8015610ecb5780601f10610ea057610100808354040283529160200191610ecb565b820191906000526020600020905b815481529060010190602001808311610eae57829003601f168201915b505050505081526020016001820160009054906101000a900473ffffffffffffffffffffffffffffffffffffffff1673ffffffffffffffffffffffffffffffffffffffff1673ffffffffffffffffffffffffffffffffffffffff1681526020016002820160009054906101000a900473ffffffffffffffffffffffffffffffffffffffff1673ffffffffffffffffffffffffffffffffffffffff1673ffffffffffffffffffffffffffffffffffffffff16815260200160038201548152602001600482015481526020016005820154815260200160068201548152602001600782018054610fb890612c25565b80601f0160208091040260200160405190810160405280929190818152602001828054610fe490612c25565b80156110315780601f1061100657610100808354040283529160200191611031565b820191906000526020600020905b81548152906001019060200180831161101457829003601f168201915b5050505050815260200160088201805461104a90612c25565b80601f016020809104026020016040519081016040528092919081815260200182805461107690612c25565b80156110c35780601f10611098576101008083540402835291602001916110c3565b820191906000526020600020905b8154815290600101906020018083116110a657829003601f168201915b50505050508152505081526020019060010190610e1e565b50505050905090565b600481815481106110f457600080fd5b906000526020600020906009020160009150905080600001805461111790612c25565b80601f016020809104026020016040519081016040528092919081815260200182805461114390612c25565b80156111905780601f1061116557610100808354040283529160200191611190565b820191906000526020600020905b81548152906001019060200180831161117357829003601f168201915b5050505050908060010160009054906101000a900473ffffffffffffffffffffffffffffffffffffffff16908060020160009054906101000a900473ffffffffffffffffffffffffffffffffffffffff169080600301549080600401549080600501549080600601549080600701805461120990612c25565b80601f016020809104026020016040519081016040528092919081815260200182805461123590612c25565b80156112825780601f1061125757610100808354040283529160200191611282565b820191906000526020600020905b81548152906001019060200180831161126557829003601f168201915b50505050509080600801805461129790612c25565b80601f01602080910402602001604051908101604052809291908181526020018280546112c390612c25565b80156113105780601f106112e557610100808354040283529160200191611310565b820191906000526020600020905b8154815290600101906020018083116112f357829003601f168201915b5050505050905089565b6003818154811061132a57600080fd5b90600052602060002090600502016000915090508060000160009054906101000a900473ffffffffffffffffffffffffffffffffffffffff169080600101805461137390612c25565b80601f016020809104026020016040519081016040528092919081815260200182805461139f90612c25565b80156113ec5780601f106113c1576101008083540402835291602001916113ec565b820191906000526020600020905b8154815290600101906020018083116113cf57829003601f168201915b50505050509080600201805461140190612c25565b80601f016020809104026020016040519081016040528092919081815260200182805461142d90612c25565b801561147a5780601f1061144f5761010080835404028352916020019161147a565b820191906000526020600020905b81548152906001019060200180831161145d57829003601f168201915b50505050509080600301805461148f90612c25565b80601f01602080910402602001604051908101604052809291908181526020018280546114bb90612c25565b80156115085780601f106114dd57610100808354040283529160200191611508565b820191906000526020600020905b8154815290600101906020018083116114eb57829003601f168201915b50505050509080600401805461151d90612c25565b80601f016020809104026020016040519081016040528092919081815260200182805461154990612c25565b80156115965780601f1061156b57610100808354040283529160200191611596565b820191906000526020600020905b81548152906001019060200180831161157957829003601f168201915b5050505050905085565b6000600284815481106115b6576115b5612c56565b5b90600052602060002090600802016004015403611608576040517f08c379a00000000000000000000000000000000000000000000000000000000081526004016115ff90613156565b60405180910390fd5b426002848154811061161d5761161c612c56565b5b9060005260206000209060080201600401541161166f576040517f08c379a0000000000000000000000000000000000000000000000000000000008152600401611666906131c2565b60405180910390fd5b600082116116b2576040517f08c379a00000000000000000000000000000000000000000000000000000000081526004016116a99061322e565b60405180910390fd5b600582106116f5576040517f08c379a00000000000000000000000000000000000000000000000000000000081526004016116ec906132c0565b60405180910390fd5b60006002848154811061170b5761170a612c56565b5b906000526020600020906008020190508281600701541015611762576040517f08c379a00000000000000000000000000000000000000000000000000000000081526004016117599061332c565b60405180910390fd5b82816007016000828254611776919061334c565b9250508190555082600160003373ffffffffffffffffffffffffffffffffffffffff1673ffffffffffffffffffffffffffffffffffffffff168152602001908152602001600020600086815260200190815260200160002060008282546117dd9190613380565b92505081905550600460405180610120016040528083600101805461180190612c25565b80601f016020809104026020016040519081016040528092919081815260200182805461182d90612c25565b801561187a5780601f1061184f5761010080835404028352916020019161187a565b820191906000526020600020905b81548152906001019060200180831161185d57829003601f168201915b505050505081526020013373ffffffffffffffffffffffffffffffffffffffff1681526020018360000160009054906101000a900473ffffffffffffffffffffffffffffffffffffffff1673ffffffffffffffffffffffffffffffffffffffff1681526020018481526020018581526020018360040154815260200142815260200183600201805461190b90612c25565b80601f016020809104026020016040519081016040528092919081815260200182805461193790612c25565b80156119845780601f1061195957610100808354040283529160200191611984565b820191906000526020600020905b81548152906001019060200180831161196757829003601f168201915b5050505050815260200183600301805461199d90612c25565b80601f01602080910402602001604051908101604052809291908181526020018280546119c990612c25565b8015611a165780601f106119eb57610100808354040283529160200191611a16565b820191906000526020600020905b8154815290600101906020018083116119f957829003601f168201915b505050505081525090806001815401808255809150506001900390600052602060002090600902016000909190919091506000820151816000019081611a5c9190612f14565b5060208201518160010160006101000a81548173ffffffffffffffffffffffffffffffffffffffff021916908373ffffffffffffffffffffffffffffffffffffffff16021790555060408201518160020160006101000a81548173ffffffffffffffffffffffffffffffffffffffff021916908373ffffffffffffffffffffffffffffffffffffffff160217905550606082015181600301556080820151816004015560a0820151816005015560c0820151816006015560e0820151816007019081611b289190612f14565b50610100820151816008019081611b3f9190612f14565b50505060008054906101000a900473ffffffffffffffffffffffffffffffffffffffff1673ffffffffffffffffffffffffffffffffffffffff166108fc349081150290604051600060405180830381858888f19350505050158015611ba8573d6000803e3d6000fd5b5050505050565b6001602052816000526040600020602052806000526040600020600091509150505481565b60606003805480602002602001604051908101604052809291908181526020016000905b82821015611ec857838290600052602060002090600502016040518060a00160405290816000820160009054906101000a900473ffffffffffffffffffffffffffffffffffffffff1673ffffffffffffffffffffffffffffffffffffffff1673ffffffffffffffffffffffffffffffffffffffff168152602001600182018054611c8190612c25565b80601f0160208091040260200160405190810160405280929190818152602001828054611cad90612c25565b8015611cfa5780601f10611ccf57610100808354040283529160200191611cfa565b820191906000526020600020905b815481529060010190602001808311611cdd57829003601f168201915b50505050508152602001600282018054611d1390612c25565b80601f0160208091040260200160405190810160405280929190818152602001828054611d3f90612c25565b8015611d8c5780601f10611d6157610100808354040283529160200191611d8c565b820191906000526020600020905b815481529060010190602001808311611d6f57829003601f168201915b50505050508152602001600382018054611da590612c25565b80601f0160208091040260200160405190810160405280929190818152602001828054611dd190612c25565b8015611e1e5780601f10611df357610100808354040283529160200191611e1e565b820191906000526020600020905b815481529060010190602001808311611e0157829003601f168201915b50505050508152602001600482018054611e3790612c25565b80601f0160208091040260200160405190810160405280929190818152602001828054611e6390612c25565b8015611eb05780601f10611e8557610100808354040283529160200191611eb0565b820191906000526020600020905b815481529060010190602001808311611e9357829003601f168201915b50505050508152505081526020019060010190611bf8565b50505050905090565b6040518060a00160405280600073ffffffffffffffffffffffffffffffffffffffff168152602001606081526020016060815260200160608152602001606081525090565b6000604051905090565b600080fd5b600080fd5b6000819050919050565b611f3d81611f2a565b8114611f4857600080fd5b50565b600081359050611f5a81611f34565b92915050565b600060208284031215611f7657611f75611f20565b5b6000611f8484828501611f4b565b91505092915050565b600073ffffffffffffffffffffffffffffffffffffffff82169050919050565b6000611fb882611f8d565b9050919050565b611fc881611fad565b82525050565b600081519050919050565b600082825260208201905092915050565b60005b83811015612008578082015181840152602081019050611fed565b60008484015250505050565b6000601f19601f8301169050919050565b600061203082611fce565b61203a8185611fd9565b935061204a818560208601611fea565b61205381612014565b840191505092915050565b61206781611f2a565b82525050565b600061010082019050612083600083018b611fbf565b8181036020830152612095818a612025565b905081810360408301526120a98189612025565b905081810360608301526120bd8188612025565b90506120cc608083018761205e565b6120d960a083018661205e565b6120e660c083018561205e565b6120f360e083018461205e565b9998505050505050505050565b61210981611fad565b811461211457600080fd5b50565b60008135905061212681612100565b92915050565b60006020828403121561214257612141611f20565b5b600061215084828501612117565b91505092915050565b61216281611fad565b82525050565b600082825260208201905092915050565b600061218482611fce565b61218e8185612168565b935061219e818560208601611fea565b6121a781612014565b840191505092915050565b600060a0830160008301516121ca6000860182612159565b50602083015184820360208601526121e28282612179565b915050604083015184820360408601526121fc8282612179565b915050606083015184820360608601526122168282612179565b915050608083015184820360808601526122308282612179565b9150508091505092915050565b6000602082019050818103600083015261225781846121b2565b905092915050565b600081519050919050565b600082825260208201905092915050565b6000819050602082019050919050565b61229481611f2a565b82525050565b6000610100830160008301516122b36000860182612159565b50602083015184820360208601526122cb8282612179565b915050604083015184820360408601526122e58282612179565b915050606083015184820360608601526122ff8282612179565b9150506080830151612314608086018261228b565b5060a083015161232760a086018261228b565b5060c083015161233a60c086018261228b565b5060e083015161234d60e086018261228b565b508091505092915050565b6000612364838361229a565b905092915050565b6000602082019050919050565b60006123848261225f565b61238e818561226a565b9350836020820285016123a08561227b565b8060005b858110156123dc57848403895281516123bd8582612358565b94506123c88361236c565b925060208a019950506001810190506123a4565b50829750879550505050505092915050565b600060208201905081810360008301526124088184612379565b905092915050565b600080fd5b600080fd5b7f4e487b7100000000000000000000000000000000000000000000000000000000600052604160045260246000fd5b61245282612014565b810181811067ffffffffffffffff821117156124715761247061241a565b5b80604052505050565b6000612484611f16565b90506124908282612449565b919050565b600067ffffffffffffffff8211156124b0576124af61241a565b5b6124b982612014565b9050602081019050919050565b82818337600083830152505050565b60006124e86124e384612495565b61247a565b90508281526020810184848401111561250457612503612415565b5b61250f8482856124c6565b509392505050565b600082601f83011261252c5761252b612410565b5b813561253c8482602086016124d5565b91505092915050565b600080600080600060a0868803121561256157612560611f20565b5b600061256f88828901612117565b955050602086013567ffffffffffffffff8111156125905761258f611f25565b5b61259c88828901612517565b945050604086013567ffffffffffffffff8111156125bd576125bc611f25565b5b6125c988828901612517565b935050606086013567ffffffffffffffff8111156125ea576125e9611f25565b5b6125f688828901612517565b925050608086013567ffffffffffffffff81111561261757612616611f25565b5b61262388828901612517565b9150509295509295909350565b60008060008060008060c0878903121561264d5761264c611f20565b5b600087013567ffffffffffffffff81111561266b5761266a611f25565b5b61267789828a01612517565b965050602087013567ffffffffffffffff81111561269857612697611f25565b5b6126a489828a01612517565b955050604087013567ffffffffffffffff8111156126c5576126c4611f25565b5b6126d189828a01612517565b94505060606126e289828a01611f4b565b93505060806126f389828a01611f4b565b92505060a061270489828a01611f4b565b9150509295509295509295565b600081519050919050565b600082825260208201905092915050565b6000819050602082019050919050565b600061012083016000830151848203600086015261275b8282612179565b91505060208301516127706020860182612159565b5060408301516127836040860182612159565b506060830151612796606086018261228b565b5060808301516127a9608086018261228b565b5060a08301516127bc60a086018261228b565b5060c08301516127cf60c086018261228b565b5060e083015184820360e08601526127e78282612179565b9150506101008301518482036101008601526128038282612179565b9150508091505092915050565b600061281c838361273d565b905092915050565b6000602082019050919050565b600061283c82612711565b612846818561271c565b9350836020820285016128588561272d565b8060005b8581101561289457848403895281516128758582612810565b945061288083612824565b925060208a0199505060018101905061285c565b50829750879550505050505092915050565b600060208201905081810360008301526128c08184612831565b905092915050565b60006101208201905081810360008301526128e3818c612025565b90506128f2602083018b611fbf565b6128ff604083018a611fbf565b61290c606083018961205e565b612919608083018861205e565b61292660a083018761205e565b61293360c083018661205e565b81810360e08301526129458185612025565b905081810361010083015261295a8184612025565b90509a9950505050505050505050565b600060a08201905061297f6000830188611fbf565b81810360208301526129918187612025565b905081810360408301526129a58186612025565b905081810360608301526129b98185612025565b905081810360808301526129cd8184612025565b90509695505050505050565b6000806000606084860312156129f2576129f1611f20565b5b6000612a0086828701611f4b565b9350506020612a1186828701611f4b565b9250506040612a2286828701611f4b565b9150509250925092565b60008060408385031215612a4357612a42611f20565b5b6000612a5185828601612117565b9250506020612a6285828601611f4b565b9150509250929050565b6000602082019050612a81600083018461205e565b92915050565b600081519050919050565b600082825260208201905092915050565b6000819050602082019050919050565b600060a083016000830151612acb6000860182612159565b5060208301518482036020860152612ae38282612179565b91505060408301518482036040860152612afd8282612179565b91505060608301518482036060860152612b178282612179565b91505060808301518482036080860152612b318282612179565b9150508091505092915050565b6000612b4a8383612ab3565b905092915050565b6000602082019050919050565b6000612b6a82612a87565b612b748185612a92565b935083602082028501612b8685612aa3565b8060005b85811015612bc25784840389528151612ba38582612b3e565b9450612bae83612b52565b925060208a01995050600181019050612b8a565b50829750879550505050505092915050565b60006020820190508181036000830152612bee8184612b5f565b905092915050565b7f4e487b7100000000000000000000000000000000000000000000000000000000600052602260045260246000fd5b60006002820490506001821680612c3d57607f821691505b602082108103612c5057612c4f612bf6565b5b50919050565b7f4e487b7100000000000000000000000000000000000000000000000000000000600052603260045260246000fd5b7f4e487b7100000000000000000000000000000000000000000000000000000000600052601160045260246000fd5b6000612cbf82611f2a565b91507fffffffffffffffffffffffffffffffffffffffffffffffffffffffffffffffff8203612cf157612cf0612c85565b5b600182019050919050565b7f537472756374206e6f7420666f756e6400000000000000000000000000000000600082015250565b6000612d32601083611fd9565b9150612d3d82612cfc565b602082019050919050565b60006020820190508181036000830152612d6181612d25565b9050919050565b60008190508160005260206000209050919050565b60006020601f8301049050919050565b600082821b905092915050565b600060088302612dca7fffffffffffffffffffffffffffffffffffffffffffffffffffffffffffffffff82612d8d565b612dd48683612d8d565b95508019841693508086168417925050509392505050565b6000819050919050565b6000612e11612e0c612e0784611f2a565b612dec565b611f2a565b9050919050565b6000819050919050565b612e2b83612df6565b612e3f612e3782612e18565b848454612d9a565b825550505050565b600090565b612e54612e47565b612e5f818484612e22565b505050565b5b81811015612e8357612e78600082612e4c565b600181019050612e65565b5050565b601f821115612ec857612e9981612d68565b612ea284612d7d565b81016020851015612eb1578190505b612ec5612ebd85612d7d565b830182612e64565b50505b505050565b600082821c905092915050565b6000612eeb60001984600802612ecd565b1980831691505092915050565b6000612f048383612eda565b9150826002028217905092915050565b612f1d82611fce565b67ffffffffffffffff811115612f3657612f3561241a565b5b612f408254612c25565b612f4b828285612e87565b600060209050601f831160018114612f7e5760008415612f6c578287015190505b612f768582612ef8565b865550612fde565b601f198416612f8c86612d68565b60005b82811015612fb457848901518255600182019150602085019450602081019050612f8f565b86831015612fd15784890151612fcd601f891682612eda565b8355505b6001600288020188555050505b505050505050565b7f596f752063616e206f7267616e697a65206576656e7420666f7220667574757260008201527f6520646174650000000000000000000000000000000000000000000000000000602082015250565b6000613042602683611fd9565b915061304d82612fe6565b604082019050919050565b6000602082019050818103600083015261307181613035565b9050919050565b7f596f752063616e206f7267616e697a65206576656e74206f6e6c79206966207960008201527f6f7520637265617465206d6f7265207468616e2030207469636b657473000000602082015250565b60006130d4603d83611fd9565b91506130df82613078565b604082019050919050565b60006020820190508181036000830152613103816130c7565b9050919050565b7f4576656e7420646f6573206e6f74206578697374000000000000000000000000600082015250565b6000613140601483611fd9565b915061314b8261310a565b602082019050919050565b6000602082019050818103600083015261316f81613133565b9050919050565b7f4576656e742068617320616c7265616479206f63637572656400000000000000600082015250565b60006131ac601983611fd9565b91506131b782613176565b602082019050919050565b600060208201905081810360008301526131db8161319f565b9050919050565b7f436f756e742063616e6e6f74206265207a65726f000000000000000000000000600082015250565b6000613218601483611fd9565b9150613223826131e2565b602082019050919050565b600060208201905081810360008301526132478161320b565b9050919050565b7f596f752063616e6e6f7420627579206d6f7265207468616e2034207469636b6560008201527f7473000000000000000000000000000000000000000000000000000000000000602082015250565b60006132aa602283611fd9565b91506132b58261324e565b604082019050919050565b600060208201905081810360008301526132d98161329d565b9050919050565b7f4e6f7420656e6f756768207469636b6574730000000000000000000000000000600082015250565b6000613316601283611fd9565b9150613321826132e0565b602082019050919050565b6000602082019050818103600083015261334581613309565b9050919050565b600061335782611f2a565b915061336283611f2a565b925082820390508181111561337a57613379612c85565b5b92915050565b600061338b82611f2a565b915061339683611f2a565b92508282019050808211156133ae576133ad612c85565b5b9291505056fea2646970667358221220ce93f107d2c0e357e5c69fee593c5c8556474112d550b8944da3b71d222921a464736f6c63430008110033",
  "immutableReferences": {},
  "source": "//SPDX-License-Identifier: Unlicense\npragma solidity >=0.5.0 <0.9.0;\n\ncontract Ticketing {\n    address payable owner;\n    mapping(address => mapping(uint256 => uint256)) public tickets;\n\n    // Create Structure for Event.........\n    struct Event {\n        address organizer;\n        string brandName;\n        string starting;\n        string destination;\n        uint256 date;\n        uint256 price;\n        uint256 ticketCount;\n        uint256 ticketRemain;\n    }\n\n    // Create Structure for Transactions......\n    struct Transaction {\n        string brandName;\n        address buyer;\n        address seller;\n        uint256 paid;\n        uint256 quantity;\n        uint256 jounryDate;\n        uint256 issueDate;\n        string source;\n        string destination;\n    }\n\n    // Create Structure for Profile..................\n    struct Profile {\n        address userAccount;\n        string name;\n        string email;\n        string phone;\n        string pic;\n    }\n\n    // Defining the owner in the deploy time.........\n    constructor() {\n        owner = payable(msg.sender);\n    }\n\n    // Creating Structure arrays.......\n    Event[] public events;\n    Profile[] public profiles;\n    Transaction[] public transactions;\n\n    //Create a new Events..........\n    function createEvent(\n        string memory brandName,\n        string memory starting,\n        string memory destination,\n        uint256 date,\n        uint256 price,\n        uint256 ticketCount\n    ) external {\n        require(\n            date > block.timestamp,\n            \"You can organize event for future date\"\n        );\n        require(\n            ticketCount > 0,\n            \"You can organize event only if you create more than 0 tickets\"\n        );\n\n        events.push(\n            Event(\n                msg.sender,\n                brandName,\n                starting,\n                destination,\n                date,\n                price,\n                ticketCount,\n                ticketCount\n            )\n        );\n    }\n\n    // Buying a ticket and make the transactions.........\n    function buyTicket(\n        uint256 id,\n        uint256 quantity,\n        uint256 amount\n    ) external payable {\n        require(events[id].date != 0, \"Event does not exist\");\n        require(events[id].date > block.timestamp, \"Event has already occured\");\n        require(quantity > 0, \"Count cannot be zero\");\n        require(quantity < 5, \"You cannot buy more than 4 tickets\");\n        Event storage _event = events[id];\n        require(_event.ticketRemain >= quantity, \"Not enough tickets\");\n        _event.ticketRemain -= quantity;\n        tickets[msg.sender][id] += quantity;\n        transactions.push(\n            Transaction(\n                _event.brandName,\n                msg.sender,\n                _event.organizer,\n                amount,\n                quantity,\n                _event.date,\n                block.timestamp,\n                 _event.starting,\n                _event.destination\n            )\n        );\n        owner.transfer(msg.value);\n    }\n\n    function getEvents() public view returns (Event[] memory) {\n        return events;\n    }\n\n    function getTransactions() public view returns (Transaction[] memory) {\n        return transactions;\n    }\n\n    function createProfile(\n        address _userAccount,\n        string memory _name,\n        string memory _email,\n        string memory _phone,\n        string memory _pic\n    ) public {\n        profiles.push(Profile(_userAccount, _name, _email, _phone, _pic));\n    }\n\n    function allProfiles() public view returns (Profile[] memory) {\n        return profiles;\n    }\n\n    function getProfile(address _userAccount)\n        public\n        view\n        returns (Profile memory)\n    {\n        for (uint256 i = 0; i < profiles.length; i++) {\n            if (profiles[i].userAccount == _userAccount) {\n                return profiles[i];\n            }\n        }\n        revert(\"Struct not found\");\n    }\n}\n",
  "sourcePath": "/home/shanto/Downloads/project_350/frontend/contracts/Ticketing.sol",
  "compiler": {
    "name": "solc",
    "version": "0.8.17+commit.8df45f5f.Emscripten.clang"
  },
  "schemaVersion": "3.4.10",
  "updatedAt": "2023-03-12T22:48:38.487Z",
  "networkType": "ethereum",
  "devdoc": {
    "kind": "dev",
    "methods": {},
    "version": 1
  },
  "userdoc": {
    "kind": "user",
    "methods": {},
    "version": 1
  }
}