{
  "contractName": "Ticketing",
  "abi": [
    {
      "inputs": [],
      "stateMutability": "nonpayable",
      "type": "constructor"
    },
    {
      "inputs": [
        {
          "internalType": "uint256",
          "name": "",
          "type": "uint256"
        }
      ],
      "name": "events",
      "outputs": [
        {
          "internalType": "address",
          "name": "organizer",
          "type": "address"
        },
        {
          "internalType": "string",
          "name": "brandName",
          "type": "string"
        },
        {
          "internalType": "string",
          "name": "starting",
          "type": "string"
        },
        {
          "internalType": "string",
          "name": "destination",
          "type": "string"
        },
        {
          "internalType": "uint256",
          "name": "date",
          "type": "uint256"
        },
        {
          "internalType": "uint256",
          "name": "price",
          "type": "uint256"
        },
        {
          "internalType": "uint256",
          "name": "ticketCount",
          "type": "uint256"
        },
        {
          "internalType": "uint256",
          "name": "ticketRemain",
          "type": "uint256"
        }
      ],
      "stateMutability": "view",
      "type": "function",
      "constant": true
    },
    {
      "inputs": [
        {
          "internalType": "address",
          "name": "",
          "type": "address"
        },
        {
          "internalType": "uint256",
          "name": "",
          "type": "uint256"
        }
      ],
      "name": "tickets",
      "outputs": [
        {
          "internalType": "uint256",
          "name": "",
          "type": "uint256"
        }
      ],
      "stateMutability": "view",
      "type": "function",
      "constant": true
    },
    {
      "inputs": [
        {
          "internalType": "uint256",
          "name": "",
          "type": "uint256"
        }
      ],
      "name": "transactions",
      "outputs": [
        {
          "internalType": "string",
          "name": "brandName",
          "type": "string"
        },
        {
          "internalType": "address",
          "name": "buyer",
          "type": "address"
        },
        {
          "internalType": "uint256",
          "name": "paid",
          "type": "uint256"
        },
        {
          "internalType": "uint256",
          "name": "quantity",
          "type": "uint256"
        }
      ],
      "stateMutability": "view",
      "type": "function",
      "constant": true
    },
    {
      "inputs": [
        {
          "internalType": "string",
          "name": "brandName",
          "type": "string"
        },
        {
          "internalType": "string",
          "name": "starting",
          "type": "string"
        },
        {
          "internalType": "string",
          "name": "destination",
          "type": "string"
        },
        {
          "internalType": "uint256",
          "name": "date",
          "type": "uint256"
        },
        {
          "internalType": "uint256",
          "name": "price",
          "type": "uint256"
        },
        {
          "internalType": "uint256",
          "name": "ticketCount",
          "type": "uint256"
        }
      ],
      "name": "createEvent",
      "outputs": [],
      "stateMutability": "nonpayable",
      "type": "function"
    },
    {
      "inputs": [
        {
          "internalType": "uint256",
          "name": "id",
          "type": "uint256"
        },
        {
          "internalType": "uint256",
          "name": "quantity",
          "type": "uint256"
        }
      ],
      "name": "buyTicket",
      "outputs": [],
      "stateMutability": "payable",
      "type": "function",
      "payable": true
    },
    {
      "inputs": [],
      "name": "getEvents",
      "outputs": [
        {
          "components": [
            {
              "internalType": "address",
              "name": "organizer",
              "type": "address"
            },
            {
              "internalType": "string",
              "name": "brandName",
              "type": "string"
            },
            {
              "internalType": "string",
              "name": "starting",
              "type": "string"
            },
            {
              "internalType": "string",
              "name": "destination",
              "type": "string"
            },
            {
              "internalType": "uint256",
              "name": "date",
              "type": "uint256"
            },
            {
              "internalType": "uint256",
              "name": "price",
              "type": "uint256"
            },
            {
              "internalType": "uint256",
              "name": "ticketCount",
              "type": "uint256"
            },
            {
              "internalType": "uint256",
              "name": "ticketRemain",
              "type": "uint256"
            }
          ],
          "internalType": "struct Ticketing.Event[]",
          "name": "",
          "type": "tuple[]"
        }
      ],
      "stateMutability": "view",
      "type": "function",
      "constant": true
    },
    {
      "inputs": [],
      "name": "getTransactions",
      "outputs": [
        {
          "components": [
            {
              "internalType": "string",
              "name": "brandName",
              "type": "string"
            },
            {
              "internalType": "address",
              "name": "buyer",
              "type": "address"
            },
            {
              "internalType": "uint256",
              "name": "paid",
              "type": "uint256"
            },
            {
              "internalType": "uint256",
              "name": "quantity",
              "type": "uint256"
            }
          ],
          "internalType": "struct Ticketing.Transaction[]",
          "name": "",
          "type": "tuple[]"
        }
      ],
      "stateMutability": "view",
      "type": "function",
      "constant": true
    }
  ],
  "bytecode": "0x608060405234801561001057600080fd5b5033600360006101000a81548173ffffffffffffffffffffffffffffffffffffffff021916908373ffffffffffffffffffffffffffffffffffffffff160217905550611f4c806100616000396000f3fe6080604052600436106100705760003560e01c8063492a92711161004e578063492a92711461010057806383920e90146101295780639ace38c214610154578063dae7a13c1461019457610070565b80630b79143014610075578063298ec208146100b9578063404aa8f9146100d5575b600080fd5b34801561008157600080fd5b5061009c60048036038101906100979190610f44565b6101d1565b6040516100b0989796959493929190611051565b60405180910390f35b6100d360048036038101906100ce91906110e4565b6103e1565b005b3480156100e157600080fd5b506100ea610843565b6040516100f7919061130c565b60405180910390f35b34801561010c57600080fd5b5061012760048036038101906101229190611463565b610ad7565b005b34801561013557600080fd5b5061013e610c92565b60405161014b9190611669565b60405180910390f35b34801561016057600080fd5b5061017b60048036038101906101769190610f44565b610ded565b60405161018b949392919061168b565b60405180910390f35b3480156101a057600080fd5b506101bb60048036038101906101b69190611703565b610ed5565b6040516101c89190611743565b60405180910390f35b600081815481106101e157600080fd5b90600052602060002090600802016000915090508060000160009054906101000a900473ffffffffffffffffffffffffffffffffffffffff169080600101805461022a9061178d565b80601f01602080910402602001604051908101604052809291908181526020018280546102569061178d565b80156102a35780601f10610278576101008083540402835291602001916102a3565b820191906000526020600020905b81548152906001019060200180831161028657829003601f168201915b5050505050908060020180546102b89061178d565b80601f01602080910402602001604051908101604052809291908181526020018280546102e49061178d565b80156103315780601f1061030657610100808354040283529160200191610331565b820191906000526020600020905b81548152906001019060200180831161031457829003601f168201915b5050505050908060030180546103469061178d565b80601f01602080910402602001604051908101604052809291908181526020018280546103729061178d565b80156103bf5780601f10610394576101008083540402835291602001916103bf565b820191906000526020600020905b8154815290600101906020018083116103a257829003601f168201915b5050505050908060040154908060050154908060060154908060070154905088565b60008083815481106103f6576103f56117be565b5b90600052602060002090600802016004015403610448576040517f08c379a000000000000000000000000000000000000000000000000000000000815260040161043f90611839565b60405180910390fd5b426000838154811061045d5761045c6117be565b5b906000526020600020906008020160040154116104af576040517f08c379a00000000000000000000000000000000000000000000000000000000081526004016104a6906118a5565b60405180910390fd5b600081116104f2576040517f08c379a00000000000000000000000000000000000000000000000000000000081526004016104e990611911565b60405180910390fd5b60058110610535576040517f08c379a000000000000000000000000000000000000000000000000000000000815260040161052c906119a3565b60405180910390fd5b600080838154811061054a576105496117be565b5b9060005260206000209060080201905081816005015461056a91906119f2565b34146105ab576040517f08c379a00000000000000000000000000000000000000000000000000000000081526004016105a290611a80565b60405180910390fd5b81816007015410156105f2576040517f08c379a00000000000000000000000000000000000000000000000000000000081526004016105e990611aec565b60405180910390fd5b818160070160008282546106069190611b0c565b9250508190555081600160003373ffffffffffffffffffffffffffffffffffffffff1673ffffffffffffffffffffffffffffffffffffffff1681526020019081526020016000206000858152602001908152602001600020600082825461066d9190611b40565b92505081905550600260405180608001604052808360010180546106909061178d565b80601f01602080910402602001604051908101604052809291908181526020018280546106bc9061178d565b80156107095780601f106106de57610100808354040283529160200191610709565b820191906000526020600020905b8154815290600101906020018083116106ec57829003601f168201915b505050505081526020013373ffffffffffffffffffffffffffffffffffffffff16815260200134815260200184815250908060018154018082558091505060019003906000526020600020906004020160009091909190915060008201518160000190816107779190611d20565b5060208201518160010160006101000a81548173ffffffffffffffffffffffffffffffffffffffff021916908373ffffffffffffffffffffffffffffffffffffffff16021790555060408201518160020155606082015181600301555050600360009054906101000a900473ffffffffffffffffffffffffffffffffffffffff1673ffffffffffffffffffffffffffffffffffffffff166108fc349081150290604051600060405180830381858888f1935050505015801561083d573d6000803e3d6000fd5b50505050565b60606000805480602002602001604051908101604052809291908181526020016000905b82821015610ace5783829060005260206000209060080201604051806101000160405290816000820160009054906101000a900473ffffffffffffffffffffffffffffffffffffffff1673ffffffffffffffffffffffffffffffffffffffff1673ffffffffffffffffffffffffffffffffffffffff1681526020016001820180546108f19061178d565b80601f016020809104026020016040519081016040528092919081815260200182805461091d9061178d565b801561096a5780601f1061093f5761010080835404028352916020019161096a565b820191906000526020600020905b81548152906001019060200180831161094d57829003601f168201915b505050505081526020016002820180546109839061178d565b80601f01602080910402602001604051908101604052809291908181526020018280546109af9061178d565b80156109fc5780601f106109d1576101008083540402835291602001916109fc565b820191906000526020600020905b8154815290600101906020018083116109df57829003601f168201915b50505050508152602001600382018054610a159061178d565b80601f0160208091040260200160405190810160405280929190818152602001828054610a419061178d565b8015610a8e5780601f10610a6357610100808354040283529160200191610a8e565b820191906000526020600020905b815481529060010190602001808311610a7157829003601f168201915b5050505050815260200160048201548152602001600582015481526020016006820154815260200160078201548152505081526020019060010190610867565b50505050905090565b428311610b19576040517f08c379a0000000000000000000000000000000000000000000000000000000008152600401610b1090611e64565b60405180910390fd5b60008111610b5c576040517f08c379a0000000000000000000000000000000000000000000000000000000008152600401610b5390611ef6565b60405180910390fd5b60006040518061010001604052803373ffffffffffffffffffffffffffffffffffffffff16815260200188815260200187815260200186815260200185815260200184815260200183815260200183815250908060018154018082558091505060019003906000526020600020906008020160009091909190915060008201518160000160006101000a81548173ffffffffffffffffffffffffffffffffffffffff021916908373ffffffffffffffffffffffffffffffffffffffff1602179055506020820151816001019081610c339190611d20565b506040820151816002019081610c499190611d20565b506060820151816003019081610c5f9190611d20565b506080820151816004015560a0820151816005015560c0820151816006015560e082015181600701555050505050505050565b60606002805480602002602001604051908101604052809291908181526020016000905b82821015610de45783829060005260206000209060040201604051806080016040529081600082018054610ce99061178d565b80601f0160208091040260200160405190810160405280929190818152602001828054610d159061178d565b8015610d625780601f10610d3757610100808354040283529160200191610d62565b820191906000526020600020905b815481529060010190602001808311610d4557829003601f168201915b505050505081526020016001820160009054906101000a900473ffffffffffffffffffffffffffffffffffffffff1673ffffffffffffffffffffffffffffffffffffffff1673ffffffffffffffffffffffffffffffffffffffff1681526020016002820154815260200160038201548152505081526020019060010190610cb6565b50505050905090565b60028181548110610dfd57600080fd5b9060005260206000209060040201600091509050806000018054610e209061178d565b80601f0160208091040260200160405190810160405280929190818152602001828054610e4c9061178d565b8015610e995780601f10610e6e57610100808354040283529160200191610e99565b820191906000526020600020905b815481529060010190602001808311610e7c57829003601f168201915b5050505050908060010160009054906101000a900473ffffffffffffffffffffffffffffffffffffffff16908060020154908060030154905084565b6001602052816000526040600020602052806000526040600020600091509150505481565b6000604051905090565b600080fd5b600080fd5b6000819050919050565b610f2181610f0e565b8114610f2c57600080fd5b50565b600081359050610f3e81610f18565b92915050565b600060208284031215610f5a57610f59610f04565b5b6000610f6884828501610f2f565b91505092915050565b600073ffffffffffffffffffffffffffffffffffffffff82169050919050565b6000610f9c82610f71565b9050919050565b610fac81610f91565b82525050565b600081519050919050565b600082825260208201905092915050565b60005b83811015610fec578082015181840152602081019050610fd1565b60008484015250505050565b6000601f19601f8301169050919050565b600061101482610fb2565b61101e8185610fbd565b935061102e818560208601610fce565b61103781610ff8565b840191505092915050565b61104b81610f0e565b82525050565b600061010082019050611067600083018b610fa3565b8181036020830152611079818a611009565b9050818103604083015261108d8189611009565b905081810360608301526110a18188611009565b90506110b06080830187611042565b6110bd60a0830186611042565b6110ca60c0830185611042565b6110d760e0830184611042565b9998505050505050505050565b600080604083850312156110fb576110fa610f04565b5b600061110985828601610f2f565b925050602061111a85828601610f2f565b9150509250929050565b600081519050919050565b600082825260208201905092915050565b6000819050602082019050919050565b61115981610f91565b82525050565b600082825260208201905092915050565b600061117b82610fb2565b611185818561115f565b9350611195818560208601610fce565b61119e81610ff8565b840191505092915050565b6111b281610f0e565b82525050565b6000610100830160008301516111d16000860182611150565b50602083015184820360208601526111e98282611170565b915050604083015184820360408601526112038282611170565b9150506060830151848203606086015261121d8282611170565b915050608083015161123260808601826111a9565b5060a083015161124560a08601826111a9565b5060c083015161125860c08601826111a9565b5060e083015161126b60e08601826111a9565b508091505092915050565b600061128283836111b8565b905092915050565b6000602082019050919050565b60006112a282611124565b6112ac818561112f565b9350836020820285016112be85611140565b8060005b858110156112fa57848403895281516112db8582611276565b94506112e68361128a565b925060208a019950506001810190506112c2565b50829750879550505050505092915050565b600060208201905081810360008301526113268184611297565b905092915050565b600080fd5b600080fd5b7f4e487b7100000000000000000000000000000000000000000000000000000000600052604160045260246000fd5b61137082610ff8565b810181811067ffffffffffffffff8211171561138f5761138e611338565b5b80604052505050565b60006113a2610efa565b90506113ae8282611367565b919050565b600067ffffffffffffffff8211156113ce576113cd611338565b5b6113d782610ff8565b9050602081019050919050565b82818337600083830152505050565b6000611406611401846113b3565b611398565b90508281526020810184848401111561142257611421611333565b5b61142d8482856113e4565b509392505050565b600082601f83011261144a5761144961132e565b5b813561145a8482602086016113f3565b91505092915050565b60008060008060008060c087890312156114805761147f610f04565b5b600087013567ffffffffffffffff81111561149e5761149d610f09565b5b6114aa89828a01611435565b965050602087013567ffffffffffffffff8111156114cb576114ca610f09565b5b6114d789828a01611435565b955050604087013567ffffffffffffffff8111156114f8576114f7610f09565b5b61150489828a01611435565b945050606061151589828a01610f2f565b935050608061152689828a01610f2f565b92505060a061153789828a01610f2f565b9150509295509295509295565b600081519050919050565b600082825260208201905092915050565b6000819050602082019050919050565b6000608083016000830151848203600086015261158d8282611170565b91505060208301516115a26020860182611150565b5060408301516115b560408601826111a9565b5060608301516115c860608601826111a9565b508091505092915050565b60006115df8383611570565b905092915050565b6000602082019050919050565b60006115ff82611544565b611609818561154f565b93508360208202850161161b85611560565b8060005b85811015611657578484038952815161163885826115d3565b9450611643836115e7565b925060208a0199505060018101905061161f565b50829750879550505050505092915050565b6000602082019050818103600083015261168381846115f4565b905092915050565b600060808201905081810360008301526116a58187611009565b90506116b46020830186610fa3565b6116c16040830185611042565b6116ce6060830184611042565b95945050505050565b6116e081610f91565b81146116eb57600080fd5b50565b6000813590506116fd816116d7565b92915050565b6000806040838503121561171a57611719610f04565b5b6000611728858286016116ee565b925050602061173985828601610f2f565b9150509250929050565b60006020820190506117586000830184611042565b92915050565b7f4e487b7100000000000000000000000000000000000000000000000000000000600052602260045260246000fd5b600060028204905060018216806117a557607f821691505b6020821081036117b8576117b761175e565b5b50919050565b7f4e487b7100000000000000000000000000000000000000000000000000000000600052603260045260246000fd5b7f4576656e7420646f6573206e6f74206578697374000000000000000000000000600082015250565b6000611823601483610fbd565b915061182e826117ed565b602082019050919050565b6000602082019050818103600083015261185281611816565b9050919050565b7f4576656e742068617320616c7265616479206f63637572656400000000000000600082015250565b600061188f601983610fbd565b915061189a82611859565b602082019050919050565b600060208201905081810360008301526118be81611882565b9050919050565b7f436f756e742063616e6e6f74206265207a65726f000000000000000000000000600082015250565b60006118fb601483610fbd565b9150611906826118c5565b602082019050919050565b6000602082019050818103600083015261192a816118ee565b9050919050565b7f596f752063616e6e6f7420627579206d6f7265207468616e2034207469636b6560008201527f7473000000000000000000000000000000000000000000000000000000000000602082015250565b600061198d602283610fbd565b915061199882611931565b604082019050919050565b600060208201905081810360008301526119bc81611980565b9050919050565b7f4e487b7100000000000000000000000000000000000000000000000000000000600052601160045260246000fd5b60006119fd82610f0e565b9150611a0883610f0e565b9250828202611a1681610f0e565b91508282048414831517611a2d57611a2c6119c3565b5b5092915050565b7f457468657265206973206e6f7420656e6f756768000000000000000000000000600082015250565b6000611a6a601483610fbd565b9150611a7582611a34565b602082019050919050565b60006020820190508181036000830152611a9981611a5d565b9050919050565b7f4e6f7420656e6f756768207469636b6574730000000000000000000000000000600082015250565b6000611ad6601283610fbd565b9150611ae182611aa0565b602082019050919050565b60006020820190508181036000830152611b0581611ac9565b9050919050565b6000611b1782610f0e565b9150611b2283610f0e565b9250828203905081811115611b3a57611b396119c3565b5b92915050565b6000611b4b82610f0e565b9150611b5683610f0e565b9250828201905080821115611b6e57611b6d6119c3565b5b92915050565b60008190508160005260206000209050919050565b60006020601f8301049050919050565b600082821b905092915050565b600060088302611bd67fffffffffffffffffffffffffffffffffffffffffffffffffffffffffffffffff82611b99565b611be08683611b99565b95508019841693508086168417925050509392505050565b6000819050919050565b6000611c1d611c18611c1384610f0e565b611bf8565b610f0e565b9050919050565b6000819050919050565b611c3783611c02565b611c4b611c4382611c24565b848454611ba6565b825550505050565b600090565b611c60611c53565b611c6b818484611c2e565b505050565b5b81811015611c8f57611c84600082611c58565b600181019050611c71565b5050565b601f821115611cd457611ca581611b74565b611cae84611b89565b81016020851015611cbd578190505b611cd1611cc985611b89565b830182611c70565b50505b505050565b600082821c905092915050565b6000611cf760001984600802611cd9565b1980831691505092915050565b6000611d108383611ce6565b9150826002028217905092915050565b611d2982610fb2565b67ffffffffffffffff811115611d4257611d41611338565b5b611d4c825461178d565b611d57828285611c93565b600060209050601f831160018114611d8a5760008415611d78578287015190505b611d828582611d04565b865550611dea565b601f198416611d9886611b74565b60005b82811015611dc057848901518255600182019150602085019450602081019050611d9b565b86831015611ddd5784890151611dd9601f891682611ce6565b8355505b6001600288020188555050505b505050505050565b7f596f752063616e206f7267616e697a65206576656e7420666f7220667574757260008201527f6520646174650000000000000000000000000000000000000000000000000000602082015250565b6000611e4e602683610fbd565b9150611e5982611df2565b604082019050919050565b60006020820190508181036000830152611e7d81611e41565b9050919050565b7f596f752063616e206f7267616e697a65206576656e74206f6e6c79206966207960008201527f6f7520637265617465206d6f7265207468616e2030207469636b657473000000602082015250565b6000611ee0603d83610fbd565b9150611eeb82611e84565b604082019050919050565b60006020820190508181036000830152611f0f81611ed3565b905091905056fea2646970667358221220b65d3394e7c2f2f09d2a76e98f2edc110b68fc0fa2b110801bb9330cdc234c0f64736f6c63430008110033",
  "immutableReferences": {},
  "source": "//SPDX-License-Identifier: Unlicense\npragma solidity >=0.5.0 <0.9.0;\n\n\ncontract Ticketing {\n struct Event{\n   address organizer;\n   string brandName;\n   string starting;\n   string destination;\n   uint date; //0 1 2\n   uint price;\n   uint ticketCount;  //1 sec  0.5 sec\n   uint ticketRemain;\n }\n\n struct Transaction {\n     string brandName;\n     address buyer;\n     uint paid;\n     uint quantity;\n }\n\n\n Event[] public events;\n mapping(address=>mapping(uint=>uint)) public tickets;\n Transaction[] public transactions;\n address payable owner;\n\n constructor() {\n     owner = payable(msg.sender);\n }\n \n function createEvent(string memory brandName, string memory starting, string memory destination, uint date, uint price, uint ticketCount) external{\n   require(date>block.timestamp,\"You can organize event for future date\");\n   require(ticketCount>0,\"You can organize event only if you create more than 0 tickets\");\n\n   events.push(Event(msg.sender, brandName, starting, destination, date, price, ticketCount, ticketCount));\n }\n\n function buyTicket(uint id, uint quantity) external payable {\n   require(events[id].date!=0,\"Event does not exist\");\n   require(events[id].date>block.timestamp,\"Event has already occured\");\n   require(quantity>0, \"Count cannot be zero\");\n   require(quantity<5, \"You cannot buy more than 4 tickets\");\n   Event storage _event = events[id];\n   require(msg.value==(_event.price*quantity),\"Ethere is not enough\");\n   require(_event.ticketRemain>=quantity,\"Not enough tickets\");\n   _event.ticketRemain-=quantity;\n   tickets[msg.sender][id]+=quantity;\n   transactions.push(Transaction(_event.brandName, msg.sender, msg.value, quantity));\n   owner.transfer(msg.value);\n }\n\n function getEvents() public view returns(Event[] memory) {\n     return events;\n }\n\n function getTransactions() public view returns(Transaction[] memory) {\n     return transactions;\n }\n}",
  "sourcePath": "/mnt/Work/Projects/Web/project_350/frontend/contracts/Ticketing.sol",
  "compiler": {
    "name": "solc",
    "version": "0.8.17+commit.8df45f5f.Emscripten.clang"
  },
  "schemaVersion": "3.4.12",
  "updatedAt": "2023-02-27T16:41:08.344Z",
  "networkType": "ethereum",
  "devdoc": {
    "kind": "dev",
    "methods": {},
    "version": 1
  },
  "userdoc": {
    "kind": "user",
    "methods": {},
    "version": 1
  }
}