{
  "contractName": "Ticketing",
  "abi": [
    {
      "inputs": [],
      "stateMutability": "nonpayable",
      "type": "constructor"
    },
    {
      "inputs": [
        {
          "internalType": "uint256",
          "name": "",
          "type": "uint256"
        }
      ],
      "name": "events",
      "outputs": [
        {
          "internalType": "address",
          "name": "organizer",
          "type": "address"
        },
        {
          "internalType": "string",
          "name": "brandName",
          "type": "string"
        },
        {
          "internalType": "string",
          "name": "starting",
          "type": "string"
        },
        {
          "internalType": "string",
          "name": "destination",
          "type": "string"
        },
        {
          "internalType": "uint256",
          "name": "date",
          "type": "uint256"
        },
        {
          "internalType": "uint256",
          "name": "price",
          "type": "uint256"
        },
        {
          "internalType": "uint256",
          "name": "ticketCount",
          "type": "uint256"
        },
        {
          "internalType": "uint256",
          "name": "ticketRemain",
          "type": "uint256"
        }
      ],
      "stateMutability": "view",
      "type": "function",
      "constant": true
    },
    {
      "inputs": [
        {
          "internalType": "address",
          "name": "",
          "type": "address"
        },
        {
          "internalType": "uint256",
          "name": "",
          "type": "uint256"
        }
      ],
      "name": "tickets",
      "outputs": [
        {
          "internalType": "uint256",
          "name": "",
          "type": "uint256"
        }
      ],
      "stateMutability": "view",
      "type": "function",
      "constant": true
    },
    {
      "inputs": [
        {
          "internalType": "uint256",
          "name": "",
          "type": "uint256"
        }
      ],
      "name": "transactions",
      "outputs": [
        {
          "internalType": "string",
          "name": "brandName",
          "type": "string"
        },
        {
          "internalType": "address",
          "name": "buyer",
          "type": "address"
        },
        {
          "internalType": "address",
          "name": "seller",
          "type": "address"
        },
        {
          "internalType": "uint256",
          "name": "paid",
          "type": "uint256"
        },
        {
          "internalType": "uint256",
          "name": "quantity",
          "type": "uint256"
        }
      ],
      "stateMutability": "view",
      "type": "function",
      "constant": true
    },
    {
      "inputs": [
        {
          "internalType": "string",
          "name": "brandName",
          "type": "string"
        },
        {
          "internalType": "string",
          "name": "starting",
          "type": "string"
        },
        {
          "internalType": "string",
          "name": "destination",
          "type": "string"
        },
        {
          "internalType": "uint256",
          "name": "date",
          "type": "uint256"
        },
        {
          "internalType": "uint256",
          "name": "price",
          "type": "uint256"
        },
        {
          "internalType": "uint256",
          "name": "ticketCount",
          "type": "uint256"
        }
      ],
      "name": "createEvent",
      "outputs": [],
      "stateMutability": "nonpayable",
      "type": "function"
    },
    {
      "inputs": [
        {
          "internalType": "uint256",
          "name": "id",
          "type": "uint256"
        },
        {
          "internalType": "uint256",
          "name": "quantity",
          "type": "uint256"
        },
        {
          "internalType": "uint256",
          "name": "amount",
          "type": "uint256"
        }
      ],
      "name": "buyTicket",
      "outputs": [],
      "stateMutability": "payable",
      "type": "function",
      "payable": true
    },
    {
      "inputs": [],
      "name": "getEvents",
      "outputs": [
        {
          "components": [
            {
              "internalType": "address",
              "name": "organizer",
              "type": "address"
            },
            {
              "internalType": "string",
              "name": "brandName",
              "type": "string"
            },
            {
              "internalType": "string",
              "name": "starting",
              "type": "string"
            },
            {
              "internalType": "string",
              "name": "destination",
              "type": "string"
            },
            {
              "internalType": "uint256",
              "name": "date",
              "type": "uint256"
            },
            {
              "internalType": "uint256",
              "name": "price",
              "type": "uint256"
            },
            {
              "internalType": "uint256",
              "name": "ticketCount",
              "type": "uint256"
            },
            {
              "internalType": "uint256",
              "name": "ticketRemain",
              "type": "uint256"
            }
          ],
          "internalType": "struct Ticketing.Event[]",
          "name": "",
          "type": "tuple[]"
        }
      ],
      "stateMutability": "view",
      "type": "function",
      "constant": true
    },
    {
      "inputs": [],
      "name": "getTransactions",
      "outputs": [
        {
          "components": [
            {
              "internalType": "string",
              "name": "brandName",
              "type": "string"
            },
            {
              "internalType": "address",
              "name": "buyer",
              "type": "address"
            },
            {
              "internalType": "address",
              "name": "seller",
              "type": "address"
            },
            {
              "internalType": "uint256",
              "name": "paid",
              "type": "uint256"
            },
            {
              "internalType": "uint256",
              "name": "quantity",
              "type": "uint256"
            }
          ],
          "internalType": "struct Ticketing.Transaction[]",
          "name": "",
          "type": "tuple[]"
        }
      ],
      "stateMutability": "view",
      "type": "function",
      "constant": true
    }
  ],
  "bytecode": "0x608060405234801561001057600080fd5b5033600360006101000a81548173ffffffffffffffffffffffffffffffffffffffff021916908373ffffffffffffffffffffffffffffffffffffffff160217905550611f86806100616000396000f3fe6080604052600436106100705760003560e01c806383920e901161004e57806383920e901461010d5780639ace38c214610138578063c4c6710d14610179578063dae7a13c1461019557610070565b80630b79143014610075578063404aa8f9146100b9578063492a9271146100e4575b600080fd5b34801561008157600080fd5b5061009c60048036038101906100979190610ff8565b6101d2565b6040516100b0989796959493929190611105565b60405180910390f35b3480156100c557600080fd5b506100ce6103e2565b6040516100db9190611380565b60405180910390f35b3480156100f057600080fd5b5061010b600480360381019061010691906114d7565b610676565b005b34801561011957600080fd5b50610122610831565b60405161012f91906116f0565b60405180910390f35b34801561014457600080fd5b5061015f600480360381019061015a9190610ff8565b6109e2565b604051610170959493929190611712565b60405180910390f35b610193600480360381019061018e919061176c565b610af0565b005b3480156101a157600080fd5b506101bc60048036038101906101b791906117eb565b610f89565b6040516101c9919061182b565b60405180910390f35b600081815481106101e257600080fd5b90600052602060002090600802016000915090508060000160009054906101000a900473ffffffffffffffffffffffffffffffffffffffff169080600101805461022b90611875565b80601f016020809104026020016040519081016040528092919081815260200182805461025790611875565b80156102a45780601f10610279576101008083540402835291602001916102a4565b820191906000526020600020905b81548152906001019060200180831161028757829003601f168201915b5050505050908060020180546102b990611875565b80601f01602080910402602001604051908101604052809291908181526020018280546102e590611875565b80156103325780601f1061030757610100808354040283529160200191610332565b820191906000526020600020905b81548152906001019060200180831161031557829003601f168201915b50505050509080600301805461034790611875565b80601f016020809104026020016040519081016040528092919081815260200182805461037390611875565b80156103c05780601f10610395576101008083540402835291602001916103c0565b820191906000526020600020905b8154815290600101906020018083116103a357829003601f168201915b5050505050908060040154908060050154908060060154908060070154905088565b60606000805480602002602001604051908101604052809291908181526020016000905b8282101561066d5783829060005260206000209060080201604051806101000160405290816000820160009054906101000a900473ffffffffffffffffffffffffffffffffffffffff1673ffffffffffffffffffffffffffffffffffffffff1673ffffffffffffffffffffffffffffffffffffffff16815260200160018201805461049090611875565b80601f01602080910402602001604051908101604052809291908181526020018280546104bc90611875565b80156105095780601f106104de57610100808354040283529160200191610509565b820191906000526020600020905b8154815290600101906020018083116104ec57829003601f168201915b5050505050815260200160028201805461052290611875565b80601f016020809104026020016040519081016040528092919081815260200182805461054e90611875565b801561059b5780601f106105705761010080835404028352916020019161059b565b820191906000526020600020905b81548152906001019060200180831161057e57829003601f168201915b505050505081526020016003820180546105b490611875565b80601f01602080910402602001604051908101604052809291908181526020018280546105e090611875565b801561062d5780601f106106025761010080835404028352916020019161062d565b820191906000526020600020905b81548152906001019060200180831161061057829003601f168201915b5050505050815260200160048201548152602001600582015481526020016006820154815260200160078201548152505081526020019060010190610406565b50505050905090565b4283116106b8576040517f08c379a00000000000000000000000000000000000000000000000000000000081526004016106af90611918565b60405180910390fd5b600081116106fb576040517f08c379a00000000000000000000000000000000000000000000000000000000081526004016106f2906119aa565b60405180910390fd5b60006040518061010001604052803373ffffffffffffffffffffffffffffffffffffffff16815260200188815260200187815260200186815260200185815260200184815260200183815260200183815250908060018154018082558091505060019003906000526020600020906008020160009091909190915060008201518160000160006101000a81548173ffffffffffffffffffffffffffffffffffffffff021916908373ffffffffffffffffffffffffffffffffffffffff16021790555060208201518160010190816107d29190611b76565b5060408201518160020190816107e89190611b76565b5060608201518160030190816107fe9190611b76565b506080820151816004015560a0820151816005015560c0820151816006015560e082015181600701555050505050505050565b60606002805480602002602001604051908101604052809291908181526020016000905b828210156109d957838290600052602060002090600502016040518060a001604052908160008201805461088890611875565b80601f01602080910402602001604051908101604052809291908181526020018280546108b490611875565b80156109015780601f106108d657610100808354040283529160200191610901565b820191906000526020600020905b8154815290600101906020018083116108e457829003601f168201915b505050505081526020016001820160009054906101000a900473ffffffffffffffffffffffffffffffffffffffff1673ffffffffffffffffffffffffffffffffffffffff1673ffffffffffffffffffffffffffffffffffffffff1681526020016002820160009054906101000a900473ffffffffffffffffffffffffffffffffffffffff1673ffffffffffffffffffffffffffffffffffffffff1673ffffffffffffffffffffffffffffffffffffffff1681526020016003820154815260200160048201548152505081526020019060010190610855565b50505050905090565b600281815481106109f257600080fd5b9060005260206000209060050201600091509050806000018054610a1590611875565b80601f0160208091040260200160405190810160405280929190818152602001828054610a4190611875565b8015610a8e5780601f10610a6357610100808354040283529160200191610a8e565b820191906000526020600020905b815481529060010190602001808311610a7157829003601f168201915b5050505050908060010160009054906101000a900473ffffffffffffffffffffffffffffffffffffffff16908060020160009054906101000a900473ffffffffffffffffffffffffffffffffffffffff16908060030154908060040154905085565b6000808481548110610b0557610b04611c48565b5b90600052602060002090600802016004015403610b57576040517f08c379a0000000000000000000000000000000000000000000000000000000008152600401610b4e90611cc3565b60405180910390fd5b4260008481548110610b6c57610b6b611c48565b5b90600052602060002090600802016004015411610bbe576040517f08c379a0000000000000000000000000000000000000000000000000000000008152600401610bb590611d2f565b60405180910390fd5b60008211610c01576040517f08c379a0000000000000000000000000000000000000000000000000000000008152600401610bf890611d9b565b60405180910390fd5b60058210610c44576040517f08c379a0000000000000000000000000000000000000000000000000000000008152600401610c3b90611e2d565b60405180910390fd5b6000808481548110610c5957610c58611c48565b5b906000526020600020906008020190508281600701541015610cb0576040517f08c379a0000000000000000000000000000000000000000000000000000000008152600401610ca790611e99565b60405180910390fd5b82816007016000828254610cc49190611ee8565b9250508190555082600160003373ffffffffffffffffffffffffffffffffffffffff1673ffffffffffffffffffffffffffffffffffffffff16815260200190815260200160002060008681526020019081526020016000206000828254610d2b9190611f1c565b9250508190555060026040518060a00160405280836001018054610d4e90611875565b80601f0160208091040260200160405190810160405280929190818152602001828054610d7a90611875565b8015610dc75780601f10610d9c57610100808354040283529160200191610dc7565b820191906000526020600020905b815481529060010190602001808311610daa57829003601f168201915b505050505081526020013373ffffffffffffffffffffffffffffffffffffffff1681526020018360000160009054906101000a900473ffffffffffffffffffffffffffffffffffffffff1673ffffffffffffffffffffffffffffffffffffffff1681526020018481526020018581525090806001815401808255809150506001900390600052602060002090600502016000909190919091506000820151816000019081610e759190611b76565b5060208201518160010160006101000a81548173ffffffffffffffffffffffffffffffffffffffff021916908373ffffffffffffffffffffffffffffffffffffffff16021790555060408201518160020160006101000a81548173ffffffffffffffffffffffffffffffffffffffff021916908373ffffffffffffffffffffffffffffffffffffffff16021790555060608201518160030155608082015181600401555050600360009054906101000a900473ffffffffffffffffffffffffffffffffffffffff1673ffffffffffffffffffffffffffffffffffffffff166108fc349081150290604051600060405180830381858888f19350505050158015610f82573d6000803e3d6000fd5b5050505050565b6001602052816000526040600020602052806000526040600020600091509150505481565b6000604051905090565b600080fd5b600080fd5b6000819050919050565b610fd581610fc2565b8114610fe057600080fd5b50565b600081359050610ff281610fcc565b92915050565b60006020828403121561100e5761100d610fb8565b5b600061101c84828501610fe3565b91505092915050565b600073ffffffffffffffffffffffffffffffffffffffff82169050919050565b600061105082611025565b9050919050565b61106081611045565b82525050565b600081519050919050565b600082825260208201905092915050565b60005b838110156110a0578082015181840152602081019050611085565b60008484015250505050565b6000601f19601f8301169050919050565b60006110c882611066565b6110d28185611071565b93506110e2818560208601611082565b6110eb816110ac565b840191505092915050565b6110ff81610fc2565b82525050565b60006101008201905061111b600083018b611057565b818103602083015261112d818a6110bd565b9050818103604083015261114181896110bd565b9050818103606083015261115581886110bd565b905061116460808301876110f6565b61117160a08301866110f6565b61117e60c08301856110f6565b61118b60e08301846110f6565b9998505050505050505050565b600081519050919050565b600082825260208201905092915050565b6000819050602082019050919050565b6111cd81611045565b82525050565b600082825260208201905092915050565b60006111ef82611066565b6111f981856111d3565b9350611209818560208601611082565b611212816110ac565b840191505092915050565b61122681610fc2565b82525050565b60006101008301600083015161124560008601826111c4565b506020830151848203602086015261125d82826111e4565b9150506040830151848203604086015261127782826111e4565b9150506060830151848203606086015261129182826111e4565b91505060808301516112a6608086018261121d565b5060a08301516112b960a086018261121d565b5060c08301516112cc60c086018261121d565b5060e08301516112df60e086018261121d565b508091505092915050565b60006112f6838361122c565b905092915050565b6000602082019050919050565b600061131682611198565b61132081856111a3565b935083602082028501611332856111b4565b8060005b8581101561136e578484038952815161134f85826112ea565b945061135a836112fe565b925060208a01995050600181019050611336565b50829750879550505050505092915050565b6000602082019050818103600083015261139a818461130b565b905092915050565b600080fd5b600080fd5b7f4e487b7100000000000000000000000000000000000000000000000000000000600052604160045260246000fd5b6113e4826110ac565b810181811067ffffffffffffffff82111715611403576114026113ac565b5b80604052505050565b6000611416610fae565b905061142282826113db565b919050565b600067ffffffffffffffff821115611442576114416113ac565b5b61144b826110ac565b9050602081019050919050565b82818337600083830152505050565b600061147a61147584611427565b61140c565b905082815260208101848484011115611496576114956113a7565b5b6114a1848285611458565b509392505050565b600082601f8301126114be576114bd6113a2565b5b81356114ce848260208601611467565b91505092915050565b60008060008060008060c087890312156114f4576114f3610fb8565b5b600087013567ffffffffffffffff81111561151257611511610fbd565b5b61151e89828a016114a9565b965050602087013567ffffffffffffffff81111561153f5761153e610fbd565b5b61154b89828a016114a9565b955050604087013567ffffffffffffffff81111561156c5761156b610fbd565b5b61157889828a016114a9565b945050606061158989828a01610fe3565b935050608061159a89828a01610fe3565b92505060a06115ab89828a01610fe3565b9150509295509295509295565b600081519050919050565b600082825260208201905092915050565b6000819050602082019050919050565b600060a083016000830151848203600086015261160182826111e4565b915050602083015161161660208601826111c4565b50604083015161162960408601826111c4565b50606083015161163c606086018261121d565b50608083015161164f608086018261121d565b508091505092915050565b600061166683836115e4565b905092915050565b6000602082019050919050565b6000611686826115b8565b61169081856115c3565b9350836020820285016116a2856115d4565b8060005b858110156116de57848403895281516116bf858261165a565b94506116ca8361166e565b925060208a019950506001810190506116a6565b50829750879550505050505092915050565b6000602082019050818103600083015261170a818461167b565b905092915050565b600060a082019050818103600083015261172c81886110bd565b905061173b6020830187611057565b6117486040830186611057565b61175560608301856110f6565b61176260808301846110f6565b9695505050505050565b60008060006060848603121561178557611784610fb8565b5b600061179386828701610fe3565b93505060206117a486828701610fe3565b92505060406117b586828701610fe3565b9150509250925092565b6117c881611045565b81146117d357600080fd5b50565b6000813590506117e5816117bf565b92915050565b6000806040838503121561180257611801610fb8565b5b6000611810858286016117d6565b925050602061182185828601610fe3565b9150509250929050565b600060208201905061184060008301846110f6565b92915050565b7f4e487b7100000000000000000000000000000000000000000000000000000000600052602260045260246000fd5b6000600282049050600182168061188d57607f821691505b6020821081036118a05761189f611846565b5b50919050565b7f596f752063616e206f7267616e697a65206576656e7420666f7220667574757260008201527f6520646174650000000000000000000000000000000000000000000000000000602082015250565b6000611902602683611071565b915061190d826118a6565b604082019050919050565b60006020820190508181036000830152611931816118f5565b9050919050565b7f596f752063616e206f7267616e697a65206576656e74206f6e6c79206966207960008201527f6f7520637265617465206d6f7265207468616e2030207469636b657473000000602082015250565b6000611994603d83611071565b915061199f82611938565b604082019050919050565b600060208201905081810360008301526119c381611987565b9050919050565b60008190508160005260206000209050919050565b60006020601f8301049050919050565b600082821b905092915050565b600060088302611a2c7fffffffffffffffffffffffffffffffffffffffffffffffffffffffffffffffff826119ef565b611a3686836119ef565b95508019841693508086168417925050509392505050565b6000819050919050565b6000611a73611a6e611a6984610fc2565b611a4e565b610fc2565b9050919050565b6000819050919050565b611a8d83611a58565b611aa1611a9982611a7a565b8484546119fc565b825550505050565b600090565b611ab6611aa9565b611ac1818484611a84565b505050565b5b81811015611ae557611ada600082611aae565b600181019050611ac7565b5050565b601f821115611b2a57611afb816119ca565b611b04846119df565b81016020851015611b13578190505b611b27611b1f856119df565b830182611ac6565b50505b505050565b600082821c905092915050565b6000611b4d60001984600802611b2f565b1980831691505092915050565b6000611b668383611b3c565b9150826002028217905092915050565b611b7f82611066565b67ffffffffffffffff811115611b9857611b976113ac565b5b611ba28254611875565b611bad828285611ae9565b600060209050601f831160018114611be05760008415611bce578287015190505b611bd88582611b5a565b865550611c40565b601f198416611bee866119ca565b60005b82811015611c1657848901518255600182019150602085019450602081019050611bf1565b86831015611c335784890151611c2f601f891682611b3c565b8355505b6001600288020188555050505b505050505050565b7f4e487b7100000000000000000000000000000000000000000000000000000000600052603260045260246000fd5b7f4576656e7420646f6573206e6f74206578697374000000000000000000000000600082015250565b6000611cad601483611071565b9150611cb882611c77565b602082019050919050565b60006020820190508181036000830152611cdc81611ca0565b9050919050565b7f4576656e742068617320616c7265616479206f63637572656400000000000000600082015250565b6000611d19601983611071565b9150611d2482611ce3565b602082019050919050565b60006020820190508181036000830152611d4881611d0c565b9050919050565b7f436f756e742063616e6e6f74206265207a65726f000000000000000000000000600082015250565b6000611d85601483611071565b9150611d9082611d4f565b602082019050919050565b60006020820190508181036000830152611db481611d78565b9050919050565b7f596f752063616e6e6f7420627579206d6f7265207468616e2034207469636b6560008201527f7473000000000000000000000000000000000000000000000000000000000000602082015250565b6000611e17602283611071565b9150611e2282611dbb565b604082019050919050565b60006020820190508181036000830152611e4681611e0a565b9050919050565b7f4e6f7420656e6f756768207469636b6574730000000000000000000000000000600082015250565b6000611e83601283611071565b9150611e8e82611e4d565b602082019050919050565b60006020820190508181036000830152611eb281611e76565b9050919050565b7f4e487b7100000000000000000000000000000000000000000000000000000000600052601160045260246000fd5b6000611ef382610fc2565b9150611efe83610fc2565b9250828203905081811115611f1657611f15611eb9565b5b92915050565b6000611f2782610fc2565b9150611f3283610fc2565b9250828201905080821115611f4a57611f49611eb9565b5b9291505056fea26469706673582212200ac7b5371509c20996b8801397b881c8ef36abb9b1bdeb05e9d3ed1e26af35fd64736f6c63430008110033",
  "immutableReferences": {},
  "source": "//SPDX-License-Identifier: Unlicense\npragma solidity >=0.5.0 <0.9.0;\n\n\ncontract Ticketing {\n struct Event{\n   address organizer;\n   string brandName;\n   string starting;\n   string destination;\n   uint date; //0 1 2\n   uint price;\n   uint ticketCount;  //1 sec  0.5 sec\n   uint ticketRemain;\n }\n\n struct Transaction {\n     string brandName;\n     address buyer;\n     address seller;\n     uint paid;\n     uint quantity;\n }\n\n\n Event[] public events;\n mapping(address=>mapping(uint=>uint)) public tickets;\n Transaction[] public transactions;\n address payable owner;\n\n constructor() {\n     owner = payable(msg.sender);\n }\n \n function createEvent(string memory brandName, string memory starting, string memory destination, uint date, uint price, uint ticketCount) external{\n   require(date>block.timestamp,\"You can organize event for future date\");\n   require(ticketCount>0,\"You can organize event only if you create more than 0 tickets\");\n\n   events.push(Event(msg.sender, brandName, starting, destination, date, price, ticketCount, ticketCount));\n }\n\n function buyTicket(uint id, uint quantity, uint amount) external payable {\n   require(events[id].date!=0,\"Event does not exist\");\n   require(events[id].date>block.timestamp,\"Event has already occured\");\n   require(quantity>0, \"Count cannot be zero\");\n   require(quantity<5, \"You cannot buy more than 4 tickets\");\n   Event storage _event = events[id];\n  //  require(msg.value* 1 ether ==(_event.price*quantity),\"Ethere is not enough\");\n   require(_event.ticketRemain>=quantity,\"Not enough tickets\");\n   _event.ticketRemain-=quantity;\n   tickets[msg.sender][id]+=quantity;\n   transactions.push(Transaction(_event.brandName, msg.sender,_event.organizer, amount, quantity));\n   owner.transfer(msg.value);\n }\n\n function getEvents() public view returns(Event[] memory) {\n     return events;\n }\n\n function getTransactions() public view returns(Transaction[] memory) {\n     return transactions;\n }\n}",
  "sourcePath": "/home/shanto/Downloads/project_350/frontend/contracts/Ticketing.sol",
  "compiler": {
    "name": "solc",
    "version": "0.8.17+commit.8df45f5f.Emscripten.clang"
  },
  "schemaVersion": "3.4.10",
  "updatedAt": "2023-03-02T22:14:11.693Z",
  "networkType": "ethereum",
  "devdoc": {
    "kind": "dev",
    "methods": {},
    "version": 1
  },
  "userdoc": {
    "kind": "user",
    "methods": {},
    "version": 1
  }
}