{
  "contractName": "Ticketing",
  "abi": [
    {
      "inputs": [],
      "stateMutability": "nonpayable",
      "type": "constructor"
    },
    {
      "inputs": [
        {
          "internalType": "uint256",
          "name": "",
          "type": "uint256"
        }
      ],
      "name": "events",
      "outputs": [
        {
          "internalType": "address",
          "name": "organizer",
          "type": "address"
        },
        {
          "internalType": "string",
          "name": "brandName",
          "type": "string"
        },
        {
          "internalType": "string",
          "name": "starting",
          "type": "string"
        },
        {
          "internalType": "string",
          "name": "destination",
          "type": "string"
        },
        {
          "internalType": "uint256",
          "name": "date",
          "type": "uint256"
        },
        {
          "internalType": "uint256",
          "name": "price",
          "type": "uint256"
        },
        {
          "internalType": "uint256",
          "name": "ticketCount",
          "type": "uint256"
        },
        {
          "internalType": "uint256",
          "name": "ticketRemain",
          "type": "uint256"
        },
        {
          "internalType": "uint256",
          "name": "vehicleNumber",
          "type": "uint256"
        }
      ],
      "stateMutability": "view",
      "type": "function",
      "constant": true
    },
    {
      "inputs": [
        {
          "internalType": "address",
          "name": "",
          "type": "address"
        },
        {
          "internalType": "uint256",
          "name": "",
          "type": "uint256"
        }
      ],
      "name": "tickets",
      "outputs": [
        {
          "internalType": "uint256",
          "name": "",
          "type": "uint256"
        }
      ],
      "stateMutability": "view",
      "type": "function",
      "constant": true
    },
    {
      "inputs": [
        {
          "internalType": "uint256",
          "name": "",
          "type": "uint256"
        }
      ],
      "name": "transactions",
      "outputs": [
        {
          "internalType": "string",
          "name": "brandName",
          "type": "string"
        },
        {
          "internalType": "address",
          "name": "buyer",
          "type": "address"
        },
        {
          "internalType": "uint256",
          "name": "paid",
          "type": "uint256"
        },
        {
          "internalType": "uint256",
          "name": "quantity",
          "type": "uint256"
        }
      ],
      "stateMutability": "view",
      "type": "function",
      "constant": true
    },
    {
      "inputs": [
        {
          "internalType": "string",
          "name": "brandName",
          "type": "string"
        },
        {
          "internalType": "string",
          "name": "starting",
          "type": "string"
        },
        {
          "internalType": "string",
          "name": "destination",
          "type": "string"
        },
        {
          "internalType": "uint256",
          "name": "date",
          "type": "uint256"
        },
        {
          "internalType": "uint256",
          "name": "price",
          "type": "uint256"
        },
        {
          "internalType": "uint256",
          "name": "ticketCount",
          "type": "uint256"
        },
        {
          "internalType": "uint256",
          "name": "vehicleNumber",
          "type": "uint256"
        }
      ],
      "name": "createEvent",
      "outputs": [],
      "stateMutability": "nonpayable",
      "type": "function"
    },
    {
      "inputs": [
        {
          "internalType": "uint256",
          "name": "id",
          "type": "uint256"
        },
        {
          "internalType": "uint256",
          "name": "quantity",
          "type": "uint256"
        }
      ],
      "name": "buyTicket",
      "outputs": [],
      "stateMutability": "payable",
      "type": "function",
      "payable": true
    },
    {
      "inputs": [],
      "name": "getEvents",
      "outputs": [
        {
          "components": [
            {
              "internalType": "address",
              "name": "organizer",
              "type": "address"
            },
            {
              "internalType": "string",
              "name": "brandName",
              "type": "string"
            },
            {
              "internalType": "string",
              "name": "starting",
              "type": "string"
            },
            {
              "internalType": "string",
              "name": "destination",
              "type": "string"
            },
            {
              "internalType": "uint256",
              "name": "date",
              "type": "uint256"
            },
            {
              "internalType": "uint256",
              "name": "price",
              "type": "uint256"
            },
            {
              "internalType": "uint256",
              "name": "ticketCount",
              "type": "uint256"
            },
            {
              "internalType": "uint256",
              "name": "ticketRemain",
              "type": "uint256"
            },
            {
              "internalType": "uint256",
              "name": "vehicleNumber",
              "type": "uint256"
            }
          ],
          "internalType": "struct Ticketing.Event[]",
          "name": "",
          "type": "tuple[]"
        }
      ],
      "stateMutability": "view",
      "type": "function",
      "constant": true
    },
    {
      "inputs": [],
      "name": "getTransactions",
      "outputs": [
        {
          "components": [
            {
              "internalType": "string",
              "name": "brandName",
              "type": "string"
            },
            {
              "internalType": "address",
              "name": "buyer",
              "type": "address"
            },
            {
              "internalType": "uint256",
              "name": "paid",
              "type": "uint256"
            },
            {
              "internalType": "uint256",
              "name": "quantity",
              "type": "uint256"
            }
          ],
          "internalType": "struct Ticketing.Transaction[]",
          "name": "",
          "type": "tuple[]"
        }
      ],
      "stateMutability": "view",
      "type": "function",
      "constant": true
    }
  ],
  "bytecode": "0x608060405234801561001057600080fd5b5033600360006101000a81548173ffffffffffffffffffffffffffffffffffffffff021916908373ffffffffffffffffffffffffffffffffffffffff160217905550611fa8806100616000396000f3fe6080604052600436106100705760003560e01c8063835e489f1161004e578063835e489f1461010157806383920e901461012a5780639ace38c214610155578063dae7a13c1461019557610070565b80630b79143014610075578063298ec208146100ba578063404aa8f9146100d6575b600080fd5b34801561008157600080fd5b5061009c60048036038101906100979190610f67565b6101d2565b6040516100b199989796959493929190611074565b60405180910390f35b6100d460048036038101906100cf9190611116565b6103e8565b005b3480156100e257600080fd5b506100eb61084a565b6040516100f89190611353565b60405180910390f35b34801561010d57600080fd5b50610128600480360381019061012391906114aa565b610ae8565b005b34801561013657600080fd5b5061013f610cb5565b60405161014c91906116c5565b60405180910390f35b34801561016157600080fd5b5061017c60048036038101906101779190610f67565b610e10565b60405161018c94939291906116e7565b60405180910390f35b3480156101a157600080fd5b506101bc60048036038101906101b7919061175f565b610ef8565b6040516101c9919061179f565b60405180910390f35b600081815481106101e257600080fd5b90600052602060002090600902016000915090508060000160009054906101000a900473ffffffffffffffffffffffffffffffffffffffff169080600101805461022b906117e9565b80601f0160208091040260200160405190810160405280929190818152602001828054610257906117e9565b80156102a45780601f10610279576101008083540402835291602001916102a4565b820191906000526020600020905b81548152906001019060200180831161028757829003601f168201915b5050505050908060020180546102b9906117e9565b80601f01602080910402602001604051908101604052809291908181526020018280546102e5906117e9565b80156103325780601f1061030757610100808354040283529160200191610332565b820191906000526020600020905b81548152906001019060200180831161031557829003601f168201915b505050505090806003018054610347906117e9565b80601f0160208091040260200160405190810160405280929190818152602001828054610373906117e9565b80156103c05780601f10610395576101008083540402835291602001916103c0565b820191906000526020600020905b8154815290600101906020018083116103a357829003601f168201915b5050505050908060040154908060050154908060060154908060070154908060080154905089565b60008083815481106103fd576103fc61181a565b5b9060005260206000209060090201600401540361044f576040517f08c379a000000000000000000000000000000000000000000000000000000000815260040161044690611895565b60405180910390fd5b42600083815481106104645761046361181a565b5b906000526020600020906009020160040154116104b6576040517f08c379a00000000000000000000000000000000000000000000000000000000081526004016104ad90611901565b60405180910390fd5b600081116104f9576040517f08c379a00000000000000000000000000000000000000000000000000000000081526004016104f09061196d565b60405180910390fd5b6005811061053c576040517f08c379a0000000000000000000000000000000000000000000000000000000008152600401610533906119ff565b60405180910390fd5b60008083815481106105515761055061181a565b5b906000526020600020906009020190508181600501546105719190611a4e565b34146105b2576040517f08c379a00000000000000000000000000000000000000000000000000000000081526004016105a990611adc565b60405180910390fd5b81816007015410156105f9576040517f08c379a00000000000000000000000000000000000000000000000000000000081526004016105f090611b48565b60405180910390fd5b8181600701600082825461060d9190611b68565b9250508190555081600160003373ffffffffffffffffffffffffffffffffffffffff1673ffffffffffffffffffffffffffffffffffffffff168152602001908152602001600020600085815260200190815260200160002060008282546106749190611b9c565b9250508190555060026040518060800160405280836001018054610697906117e9565b80601f01602080910402602001604051908101604052809291908181526020018280546106c3906117e9565b80156107105780601f106106e557610100808354040283529160200191610710565b820191906000526020600020905b8154815290600101906020018083116106f357829003601f168201915b505050505081526020013373ffffffffffffffffffffffffffffffffffffffff168152602001348152602001848152509080600181540180825580915050600190039060005260206000209060040201600090919091909150600082015181600001908161077e9190611d7c565b5060208201518160010160006101000a81548173ffffffffffffffffffffffffffffffffffffffff021916908373ffffffffffffffffffffffffffffffffffffffff16021790555060408201518160020155606082015181600301555050600360009054906101000a900473ffffffffffffffffffffffffffffffffffffffff1673ffffffffffffffffffffffffffffffffffffffff166108fc349081150290604051600060405180830381858888f19350505050158015610844573d6000803e3d6000fd5b50505050565b60606000805480602002602001604051908101604052809291908181526020016000905b82821015610adf5783829060005260206000209060090201604051806101200160405290816000820160009054906101000a900473ffffffffffffffffffffffffffffffffffffffff1673ffffffffffffffffffffffffffffffffffffffff1673ffffffffffffffffffffffffffffffffffffffff1681526020016001820180546108f8906117e9565b80601f0160208091040260200160405190810160405280929190818152602001828054610924906117e9565b80156109715780601f1061094657610100808354040283529160200191610971565b820191906000526020600020905b81548152906001019060200180831161095457829003601f168201915b5050505050815260200160028201805461098a906117e9565b80601f01602080910402602001604051908101604052809291908181526020018280546109b6906117e9565b8015610a035780601f106109d857610100808354040283529160200191610a03565b820191906000526020600020905b8154815290600101906020018083116109e657829003601f168201915b50505050508152602001600382018054610a1c906117e9565b80601f0160208091040260200160405190810160405280929190818152602001828054610a48906117e9565b8015610a955780601f10610a6a57610100808354040283529160200191610a95565b820191906000526020600020905b815481529060010190602001808311610a7857829003601f168201915b50505050508152602001600482015481526020016005820154815260200160068201548152602001600782015481526020016008820154815250508152602001906001019061086e565b50505050905090565b428411610b2a576040517f08c379a0000000000000000000000000000000000000000000000000000000008152600401610b2190611ec0565b60405180910390fd5b60008211610b6d576040517f08c379a0000000000000000000000000000000000000000000000000000000008152600401610b6490611f52565b60405180910390fd5b60006040518061012001604052803373ffffffffffffffffffffffffffffffffffffffff16815260200189815260200188815260200187815260200186815260200185815260200184815260200184815260200183815250908060018154018082558091505060019003906000526020600020906009020160009091909190915060008201518160000160006101000a81548173ffffffffffffffffffffffffffffffffffffffff021916908373ffffffffffffffffffffffffffffffffffffffff1602179055506020820151816001019081610c4a9190611d7c565b506040820151816002019081610c609190611d7c565b506060820151816003019081610c769190611d7c565b506080820151816004015560a0820151816005015560c0820151816006015560e082015181600701556101008201518160080155505050505050505050565b60606002805480602002602001604051908101604052809291908181526020016000905b82821015610e075783829060005260206000209060040201604051806080016040529081600082018054610d0c906117e9565b80601f0160208091040260200160405190810160405280929190818152602001828054610d38906117e9565b8015610d855780601f10610d5a57610100808354040283529160200191610d85565b820191906000526020600020905b815481529060010190602001808311610d6857829003601f168201915b505050505081526020016001820160009054906101000a900473ffffffffffffffffffffffffffffffffffffffff1673ffffffffffffffffffffffffffffffffffffffff1673ffffffffffffffffffffffffffffffffffffffff1681526020016002820154815260200160038201548152505081526020019060010190610cd9565b50505050905090565b60028181548110610e2057600080fd5b9060005260206000209060040201600091509050806000018054610e43906117e9565b80601f0160208091040260200160405190810160405280929190818152602001828054610e6f906117e9565b8015610ebc5780601f10610e9157610100808354040283529160200191610ebc565b820191906000526020600020905b815481529060010190602001808311610e9f57829003601f168201915b5050505050908060010160009054906101000a900473ffffffffffffffffffffffffffffffffffffffff16908060020154908060030154905084565b6001602052816000526040600020602052806000526040600020600091509150505481565b6000604051905090565b600080fd5b600080fd5b6000819050919050565b610f4481610f31565b8114610f4f57600080fd5b50565b600081359050610f6181610f3b565b92915050565b600060208284031215610f7d57610f7c610f27565b5b6000610f8b84828501610f52565b91505092915050565b600073ffffffffffffffffffffffffffffffffffffffff82169050919050565b6000610fbf82610f94565b9050919050565b610fcf81610fb4565b82525050565b600081519050919050565b600082825260208201905092915050565b60005b8381101561100f578082015181840152602081019050610ff4565b60008484015250505050565b6000601f19601f8301169050919050565b600061103782610fd5565b6110418185610fe0565b9350611051818560208601610ff1565b61105a8161101b565b840191505092915050565b61106e81610f31565b82525050565b60006101208201905061108a600083018c610fc6565b818103602083015261109c818b61102c565b905081810360408301526110b0818a61102c565b905081810360608301526110c4818961102c565b90506110d36080830188611065565b6110e060a0830187611065565b6110ed60c0830186611065565b6110fa60e0830185611065565b611108610100830184611065565b9a9950505050505050505050565b6000806040838503121561112d5761112c610f27565b5b600061113b85828601610f52565b925050602061114c85828601610f52565b9150509250929050565b600081519050919050565b600082825260208201905092915050565b6000819050602082019050919050565b61118b81610fb4565b82525050565b600082825260208201905092915050565b60006111ad82610fd5565b6111b78185611191565b93506111c7818560208601610ff1565b6111d08161101b565b840191505092915050565b6111e481610f31565b82525050565b6000610120830160008301516112036000860182611182565b506020830151848203602086015261121b82826111a2565b9150506040830151848203604086015261123582826111a2565b9150506060830151848203606086015261124f82826111a2565b915050608083015161126460808601826111db565b5060a083015161127760a08601826111db565b5060c083015161128a60c08601826111db565b5060e083015161129d60e08601826111db565b506101008301516112b26101008601826111db565b508091505092915050565b60006112c983836111ea565b905092915050565b6000602082019050919050565b60006112e982611156565b6112f38185611161565b93508360208202850161130585611172565b8060005b85811015611341578484038952815161132285826112bd565b945061132d836112d1565b925060208a01995050600181019050611309565b50829750879550505050505092915050565b6000602082019050818103600083015261136d81846112de565b905092915050565b600080fd5b600080fd5b7f4e487b7100000000000000000000000000000000000000000000000000000000600052604160045260246000fd5b6113b78261101b565b810181811067ffffffffffffffff821117156113d6576113d561137f565b5b80604052505050565b60006113e9610f1d565b90506113f582826113ae565b919050565b600067ffffffffffffffff8211156114155761141461137f565b5b61141e8261101b565b9050602081019050919050565b82818337600083830152505050565b600061144d611448846113fa565b6113df565b9050828152602081018484840111156114695761146861137a565b5b61147484828561142b565b509392505050565b600082601f83011261149157611490611375565b5b81356114a184826020860161143a565b91505092915050565b600080600080600080600060e0888a0312156114c9576114c8610f27565b5b600088013567ffffffffffffffff8111156114e7576114e6610f2c565b5b6114f38a828b0161147c565b975050602088013567ffffffffffffffff81111561151457611513610f2c565b5b6115208a828b0161147c565b965050604088013567ffffffffffffffff81111561154157611540610f2c565b5b61154d8a828b0161147c565b955050606061155e8a828b01610f52565b945050608061156f8a828b01610f52565b93505060a06115808a828b01610f52565b92505060c06115918a828b01610f52565b91505092959891949750929550565b600081519050919050565b600082825260208201905092915050565b6000819050602082019050919050565b600060808301600083015184820360008601526115e982826111a2565b91505060208301516115fe6020860182611182565b50604083015161161160408601826111db565b50606083015161162460608601826111db565b508091505092915050565b600061163b83836115cc565b905092915050565b6000602082019050919050565b600061165b826115a0565b61166581856115ab565b935083602082028501611677856115bc565b8060005b858110156116b35784840389528151611694858261162f565b945061169f83611643565b925060208a0199505060018101905061167b565b50829750879550505050505092915050565b600060208201905081810360008301526116df8184611650565b905092915050565b60006080820190508181036000830152611701818761102c565b90506117106020830186610fc6565b61171d6040830185611065565b61172a6060830184611065565b95945050505050565b61173c81610fb4565b811461174757600080fd5b50565b60008135905061175981611733565b92915050565b6000806040838503121561177657611775610f27565b5b60006117848582860161174a565b925050602061179585828601610f52565b9150509250929050565b60006020820190506117b46000830184611065565b92915050565b7f4e487b7100000000000000000000000000000000000000000000000000000000600052602260045260246000fd5b6000600282049050600182168061180157607f821691505b602082108103611814576118136117ba565b5b50919050565b7f4e487b7100000000000000000000000000000000000000000000000000000000600052603260045260246000fd5b7f4576656e7420646f6573206e6f74206578697374000000000000000000000000600082015250565b600061187f601483610fe0565b915061188a82611849565b602082019050919050565b600060208201905081810360008301526118ae81611872565b9050919050565b7f4576656e742068617320616c7265616479206f63637572656400000000000000600082015250565b60006118eb601983610fe0565b91506118f6826118b5565b602082019050919050565b6000602082019050818103600083015261191a816118de565b9050919050565b7f436f756e742063616e6e6f74206265207a65726f000000000000000000000000600082015250565b6000611957601483610fe0565b915061196282611921565b602082019050919050565b600060208201905081810360008301526119868161194a565b9050919050565b7f596f752063616e6e6f7420627579206d6f7265207468616e2034207469636b6560008201527f7473000000000000000000000000000000000000000000000000000000000000602082015250565b60006119e9602283610fe0565b91506119f48261198d565b604082019050919050565b60006020820190508181036000830152611a18816119dc565b9050919050565b7f4e487b7100000000000000000000000000000000000000000000000000000000600052601160045260246000fd5b6000611a5982610f31565b9150611a6483610f31565b9250828202611a7281610f31565b91508282048414831517611a8957611a88611a1f565b5b5092915050565b7f457468657265206973206e6f7420656e6f756768000000000000000000000000600082015250565b6000611ac6601483610fe0565b9150611ad182611a90565b602082019050919050565b60006020820190508181036000830152611af581611ab9565b9050919050565b7f4e6f7420656e6f756768207469636b6574730000000000000000000000000000600082015250565b6000611b32601283610fe0565b9150611b3d82611afc565b602082019050919050565b60006020820190508181036000830152611b6181611b25565b9050919050565b6000611b7382610f31565b9150611b7e83610f31565b9250828203905081811115611b9657611b95611a1f565b5b92915050565b6000611ba782610f31565b9150611bb283610f31565b9250828201905080821115611bca57611bc9611a1f565b5b92915050565b60008190508160005260206000209050919050565b60006020601f8301049050919050565b600082821b905092915050565b600060088302611c327fffffffffffffffffffffffffffffffffffffffffffffffffffffffffffffffff82611bf5565b611c3c8683611bf5565b95508019841693508086168417925050509392505050565b6000819050919050565b6000611c79611c74611c6f84610f31565b611c54565b610f31565b9050919050565b6000819050919050565b611c9383611c5e565b611ca7611c9f82611c80565b848454611c02565b825550505050565b600090565b611cbc611caf565b611cc7818484611c8a565b505050565b5b81811015611ceb57611ce0600082611cb4565b600181019050611ccd565b5050565b601f821115611d3057611d0181611bd0565b611d0a84611be5565b81016020851015611d19578190505b611d2d611d2585611be5565b830182611ccc565b50505b505050565b600082821c905092915050565b6000611d5360001984600802611d35565b1980831691505092915050565b6000611d6c8383611d42565b9150826002028217905092915050565b611d8582610fd5565b67ffffffffffffffff811115611d9e57611d9d61137f565b5b611da882546117e9565b611db3828285611cef565b600060209050601f831160018114611de65760008415611dd4578287015190505b611dde8582611d60565b865550611e46565b601f198416611df486611bd0565b60005b82811015611e1c57848901518255600182019150602085019450602081019050611df7565b86831015611e395784890151611e35601f891682611d42565b8355505b6001600288020188555050505b505050505050565b7f596f752063616e206f7267616e697a65206576656e7420666f7220667574757260008201527f6520646174650000000000000000000000000000000000000000000000000000602082015250565b6000611eaa602683610fe0565b9150611eb582611e4e565b604082019050919050565b60006020820190508181036000830152611ed981611e9d565b9050919050565b7f596f752063616e206f7267616e697a65206576656e74206f6e6c79206966207960008201527f6f7520637265617465206d6f7265207468616e2030207469636b657473000000602082015250565b6000611f3c603d83610fe0565b9150611f4782611ee0565b604082019050919050565b60006020820190508181036000830152611f6b81611f2f565b905091905056fea2646970667358221220cfe7b5e2df8fe7879c821f340c1ebb5035a712d91eefa51ef9f77530ca1dfadb64736f6c63430008110033",
  "immutableReferences": {},
  "source": "//SPDX-License-Identifier: Unlicense\npragma solidity >=0.5.0 <0.9.0;\n\n\ncontract Ticketing {\n struct Event{\n   address organizer;\n   string brandName;\n   string starting;\n   string destination;\n   uint date; //0 1 2\n   uint price;\n   uint ticketCount;  //1 sec  0.5 sec\n   uint ticketRemain;\n   uint vehicleNumber;\n }\n\n struct Transaction {\n     string brandName;\n     address buyer;\n     uint paid;\n     uint quantity;\n }\n\n\n Event[] public events;\n mapping(address=>mapping(uint=>uint)) public tickets;\n Transaction[] public transactions;\n address payable owner;\n\n constructor() {\n     owner = payable(msg.sender);\n }\n \n function createEvent(string memory brandName, string memory starting, string memory destination, uint date, uint price, uint ticketCount, uint vehicleNumber) external{\n   require(date>block.timestamp,\"You can organize event for future date\");\n   require(ticketCount>0,\"You can organize event only if you create more than 0 tickets\");\n\n   events.push(Event(msg.sender, brandName, starting, destination, date, price, ticketCount, ticketCount, vehicleNumber));\n }\n\n function buyTicket(uint id, uint quantity) external payable {\n   require(events[id].date!=0,\"Event does not exist\");\n   require(events[id].date>block.timestamp,\"Event has already occured\");\n   require(quantity>0, \"Count cannot be zero\");\n   require(quantity<5, \"You cannot buy more than 4 tickets\");\n   Event storage _event = events[id];\n   require(msg.value==(_event.price*quantity),\"Ethere is not enough\");\n   require(_event.ticketRemain>=quantity,\"Not enough tickets\");\n   _event.ticketRemain-=quantity;\n   tickets[msg.sender][id]+=quantity;\n   transactions.push(Transaction(_event.brandName, msg.sender, msg.value, quantity));\n   owner.transfer(msg.value);\n }\n\n function getEvents() public view returns(Event[] memory) {\n     return events;\n }\n\n function getTransactions() public view returns(Transaction[] memory) {\n     return transactions;\n }\n}",
  "sourcePath": "/home/shanto/Documents/project_350/frontend/contracts/Ticketing.sol",
  "compiler": {
    "name": "solc",
    "version": "0.8.17+commit.8df45f5f.Emscripten.clang"
  },
  "schemaVersion": "3.4.10",
  "updatedAt": "2023-02-26T19:54:27.086Z",
  "networkType": "ethereum",
  "devdoc": {
    "kind": "dev",
    "methods": {},
    "version": 1
  },
  "userdoc": {
    "kind": "user",
    "methods": {},
    "version": 1
  }
}