{
  "contractName": "Ticketing",
  "abi": [
    {
      "inputs": [],
      "stateMutability": "nonpayable",
      "type": "constructor"
    },
    {
      "inputs": [
        {
          "internalType": "uint256",
          "name": "",
          "type": "uint256"
        }
      ],
      "name": "events",
      "outputs": [
        {
          "internalType": "address",
          "name": "organizer",
          "type": "address"
        },
        {
          "internalType": "string",
          "name": "brandName",
          "type": "string"
        },
        {
          "internalType": "string",
          "name": "starting",
          "type": "string"
        },
        {
          "internalType": "string",
          "name": "destination",
          "type": "string"
        },
        {
          "internalType": "uint256",
          "name": "date",
          "type": "uint256"
        },
        {
          "internalType": "uint256",
          "name": "price",
          "type": "uint256"
        },
        {
          "internalType": "uint256",
          "name": "ticketCount",
          "type": "uint256"
        },
        {
          "internalType": "uint256",
          "name": "ticketRemain",
          "type": "uint256"
        }
      ],
      "stateMutability": "view",
      "type": "function",
      "constant": true
    },
    {
      "inputs": [
        {
          "internalType": "uint256",
          "name": "",
          "type": "uint256"
        }
      ],
      "name": "profiles",
      "outputs": [
        {
          "internalType": "address",
          "name": "userAccount",
          "type": "address"
        },
        {
          "internalType": "string",
          "name": "name",
          "type": "string"
        },
        {
          "internalType": "string",
          "name": "email",
          "type": "string"
        },
        {
          "internalType": "string",
          "name": "phone",
          "type": "string"
        },
        {
          "internalType": "string",
          "name": "pic",
          "type": "string"
        }
      ],
      "stateMutability": "view",
      "type": "function",
      "constant": true
    },
    {
      "inputs": [
        {
          "internalType": "address",
          "name": "",
          "type": "address"
        },
        {
          "internalType": "uint256",
          "name": "",
          "type": "uint256"
        }
      ],
      "name": "tickets",
      "outputs": [
        {
          "internalType": "uint256",
          "name": "",
          "type": "uint256"
        }
      ],
      "stateMutability": "view",
      "type": "function",
      "constant": true
    },
    {
      "inputs": [
        {
          "internalType": "uint256",
          "name": "",
          "type": "uint256"
        }
      ],
      "name": "transactions",
      "outputs": [
        {
          "internalType": "string",
          "name": "brandName",
          "type": "string"
        },
        {
          "internalType": "address",
          "name": "buyer",
          "type": "address"
        },
        {
          "internalType": "address",
          "name": "seller",
          "type": "address"
        },
        {
          "internalType": "uint256",
          "name": "paid",
          "type": "uint256"
        },
        {
          "internalType": "uint256",
          "name": "quantity",
          "type": "uint256"
        }
      ],
      "stateMutability": "view",
      "type": "function",
      "constant": true
    },
    {
      "inputs": [
        {
          "internalType": "string",
          "name": "brandName",
          "type": "string"
        },
        {
          "internalType": "string",
          "name": "starting",
          "type": "string"
        },
        {
          "internalType": "string",
          "name": "destination",
          "type": "string"
        },
        {
          "internalType": "uint256",
          "name": "date",
          "type": "uint256"
        },
        {
          "internalType": "uint256",
          "name": "price",
          "type": "uint256"
        },
        {
          "internalType": "uint256",
          "name": "ticketCount",
          "type": "uint256"
        }
      ],
      "name": "createEvent",
      "outputs": [],
      "stateMutability": "nonpayable",
      "type": "function"
    },
    {
      "inputs": [
        {
          "internalType": "uint256",
          "name": "id",
          "type": "uint256"
        },
        {
          "internalType": "uint256",
          "name": "quantity",
          "type": "uint256"
        },
        {
          "internalType": "uint256",
          "name": "amount",
          "type": "uint256"
        }
      ],
      "name": "buyTicket",
      "outputs": [],
      "stateMutability": "payable",
      "type": "function",
      "payable": true
    },
    {
      "inputs": [],
      "name": "getEvents",
      "outputs": [
        {
          "components": [
            {
              "internalType": "address",
              "name": "organizer",
              "type": "address"
            },
            {
              "internalType": "string",
              "name": "brandName",
              "type": "string"
            },
            {
              "internalType": "string",
              "name": "starting",
              "type": "string"
            },
            {
              "internalType": "string",
              "name": "destination",
              "type": "string"
            },
            {
              "internalType": "uint256",
              "name": "date",
              "type": "uint256"
            },
            {
              "internalType": "uint256",
              "name": "price",
              "type": "uint256"
            },
            {
              "internalType": "uint256",
              "name": "ticketCount",
              "type": "uint256"
            },
            {
              "internalType": "uint256",
              "name": "ticketRemain",
              "type": "uint256"
            }
          ],
          "internalType": "struct Ticketing.Event[]",
          "name": "",
          "type": "tuple[]"
        }
      ],
      "stateMutability": "view",
      "type": "function",
      "constant": true
    },
    {
      "inputs": [],
      "name": "getTransactions",
      "outputs": [
        {
          "components": [
            {
              "internalType": "string",
              "name": "brandName",
              "type": "string"
            },
            {
              "internalType": "address",
              "name": "buyer",
              "type": "address"
            },
            {
              "internalType": "address",
              "name": "seller",
              "type": "address"
            },
            {
              "internalType": "uint256",
              "name": "paid",
              "type": "uint256"
            },
            {
              "internalType": "uint256",
              "name": "quantity",
              "type": "uint256"
            }
          ],
          "internalType": "struct Ticketing.Transaction[]",
          "name": "",
          "type": "tuple[]"
        }
      ],
      "stateMutability": "view",
      "type": "function",
      "constant": true
    },
    {
      "inputs": [
        {
          "internalType": "address",
          "name": "_userAccount",
          "type": "address"
        },
        {
          "internalType": "string",
          "name": "_name",
          "type": "string"
        },
        {
          "internalType": "string",
          "name": "_email",
          "type": "string"
        },
        {
          "internalType": "string",
          "name": "_phone",
          "type": "string"
        },
        {
          "internalType": "string",
          "name": "_pic",
          "type": "string"
        }
      ],
      "name": "createProfile",
      "outputs": [],
      "stateMutability": "nonpayable",
      "type": "function"
    },
    {
      "inputs": [],
      "name": "allProfiles",
      "outputs": [
        {
          "components": [
            {
              "internalType": "address",
              "name": "userAccount",
              "type": "address"
            },
            {
              "internalType": "string",
              "name": "name",
              "type": "string"
            },
            {
              "internalType": "string",
              "name": "email",
              "type": "string"
            },
            {
              "internalType": "string",
              "name": "phone",
              "type": "string"
            },
            {
              "internalType": "string",
              "name": "pic",
              "type": "string"
            }
          ],
          "internalType": "struct Ticketing.Profile[]",
          "name": "",
          "type": "tuple[]"
        }
      ],
      "stateMutability": "view",
      "type": "function",
      "constant": true
    },
    {
      "inputs": [
        {
          "internalType": "address",
          "name": "_userAccount",
          "type": "address"
        }
      ],
      "name": "getProfile",
      "outputs": [
        {
          "components": [
            {
              "internalType": "address",
              "name": "userAccount",
              "type": "address"
            },
            {
              "internalType": "string",
              "name": "name",
              "type": "string"
            },
            {
              "internalType": "string",
              "name": "email",
              "type": "string"
            },
            {
              "internalType": "string",
              "name": "phone",
              "type": "string"
            },
            {
              "internalType": "string",
              "name": "pic",
              "type": "string"
            }
          ],
          "internalType": "struct Ticketing.Profile",
          "name": "",
          "type": "tuple"
        }
      ],
      "stateMutability": "view",
      "type": "function",
      "constant": true
    }
  ],
  "bytecode": "0x608060405234801561001057600080fd5b50336000806101000a81548173ffffffffffffffffffffffffffffffffffffffff021916908373ffffffffffffffffffffffffffffffffffffffff160217905550612f6a806100606000396000f3fe60806040526004361061009c5760003560e01c806383920e901161006457806383920e901461019f5780639ace38c2146101ca578063c36fe3d61461020b578063c4c6710d1461024c578063dae7a13c14610268578063fa2dfd7f146102a55761009c565b80630b791430146100a15780630f53a470146100e5578063404aa8f91461012257806342c4023f1461014d578063492a927114610176575b600080fd5b3480156100ad57600080fd5b506100c860048036038101906100c39190611b85565b6102d0565b6040516100dc989796959493929190611c92565b60405180910390f35b3480156100f157600080fd5b5061010c60048036038101906101079190611d51565b6104e0565b6040516101199190611e62565b60405180910390f35b34801561012e57600080fd5b50610137610897565b6040516101449190612013565b60405180910390f35b34801561015957600080fd5b50610174600480360381019061016f919061216a565b610b2b565b005b34801561018257600080fd5b5061019d60048036038101906101989190612255565b610c3b565b005b3480156101ab57600080fd5b506101b4610df6565b6040516101c1919061246e565b60405180910390f35b3480156101d657600080fd5b506101f160048036038101906101ec9190611b85565b610fa7565b604051610202959493929190612490565b60405180910390f35b34801561021757600080fd5b50610232600480360381019061022d9190611b85565b6110b5565b6040516102439594939291906124ea565b60405180910390f35b61026660048036038101906102619190612559565b61133b565b005b34801561027457600080fd5b5061028f600480360381019061028a91906125ac565b6117d4565b60405161029c91906125ec565b60405180910390f35b3480156102b157600080fd5b506102ba6117f9565b6040516102c79190612754565b60405180910390f35b600281815481106102e057600080fd5b90600052602060002090600802016000915090508060000160009054906101000a900473ffffffffffffffffffffffffffffffffffffffff1690806001018054610329906127a5565b80601f0160208091040260200160405190810160405280929190818152602001828054610355906127a5565b80156103a25780601f10610377576101008083540402835291602001916103a2565b820191906000526020600020905b81548152906001019060200180831161038557829003601f168201915b5050505050908060020180546103b7906127a5565b80601f01602080910402602001604051908101604052809291908181526020018280546103e3906127a5565b80156104305780601f1061040557610100808354040283529160200191610430565b820191906000526020600020905b81548152906001019060200180831161041357829003601f168201915b505050505090806003018054610445906127a5565b80601f0160208091040260200160405190810160405280929190818152602001828054610471906127a5565b80156104be5780601f10610493576101008083540402835291602001916104be565b820191906000526020600020905b8154815290600101906020018083116104a157829003601f168201915b5050505050908060040154908060050154908060060154908060070154905088565b6104e8611af6565b60005b600380549050811015610856578273ffffffffffffffffffffffffffffffffffffffff1660038281548110610523576105226127d6565b5b906000526020600020906005020160000160009054906101000a900473ffffffffffffffffffffffffffffffffffffffff1673ffffffffffffffffffffffffffffffffffffffff16036108435760038181548110610584576105836127d6565b5b90600052602060002090600502016040518060a00160405290816000820160009054906101000a900473ffffffffffffffffffffffffffffffffffffffff1673ffffffffffffffffffffffffffffffffffffffff1673ffffffffffffffffffffffffffffffffffffffff168152602001600182018054610603906127a5565b80601f016020809104026020016040519081016040528092919081815260200182805461062f906127a5565b801561067c5780601f106106515761010080835404028352916020019161067c565b820191906000526020600020905b81548152906001019060200180831161065f57829003601f168201915b50505050508152602001600282018054610695906127a5565b80601f01602080910402602001604051908101604052809291908181526020018280546106c1906127a5565b801561070e5780601f106106e35761010080835404028352916020019161070e565b820191906000526020600020905b8154815290600101906020018083116106f157829003601f168201915b50505050508152602001600382018054610727906127a5565b80601f0160208091040260200160405190810160405280929190818152602001828054610753906127a5565b80156107a05780601f10610775576101008083540402835291602001916107a0565b820191906000526020600020905b81548152906001019060200180831161078357829003601f168201915b505050505081526020016004820180546107b9906127a5565b80601f01602080910402602001604051908101604052809291908181526020018280546107e5906127a5565b80156108325780601f1061080757610100808354040283529160200191610832565b820191906000526020600020905b81548152906001019060200180831161081557829003601f168201915b505050505081525050915050610892565b808061084e90612834565b9150506104eb565b506040517f08c379a0000000000000000000000000000000000000000000000000000000008152600401610889906128c8565b60405180910390fd5b919050565b60606002805480602002602001604051908101604052809291908181526020016000905b82821015610b225783829060005260206000209060080201604051806101000160405290816000820160009054906101000a900473ffffffffffffffffffffffffffffffffffffffff1673ffffffffffffffffffffffffffffffffffffffff1673ffffffffffffffffffffffffffffffffffffffff168152602001600182018054610945906127a5565b80601f0160208091040260200160405190810160405280929190818152602001828054610971906127a5565b80156109be5780601f10610993576101008083540402835291602001916109be565b820191906000526020600020905b8154815290600101906020018083116109a157829003601f168201915b505050505081526020016002820180546109d7906127a5565b80601f0160208091040260200160405190810160405280929190818152602001828054610a03906127a5565b8015610a505780601f10610a2557610100808354040283529160200191610a50565b820191906000526020600020905b815481529060010190602001808311610a3357829003601f168201915b50505050508152602001600382018054610a69906127a5565b80601f0160208091040260200160405190810160405280929190818152602001828054610a95906127a5565b8015610ae25780601f10610ab757610100808354040283529160200191610ae2565b820191906000526020600020905b815481529060010190602001808311610ac557829003601f168201915b50505050508152602001600482015481526020016005820154815260200160068201548152602001600782015481525050815260200190600101906108bb565b50505050905090565b60036040518060a001604052808773ffffffffffffffffffffffffffffffffffffffff16815260200186815260200185815260200184815260200183815250908060018154018082558091505060019003906000526020600020906005020160009091909190915060008201518160000160006101000a81548173ffffffffffffffffffffffffffffffffffffffff021916908373ffffffffffffffffffffffffffffffffffffffff1602179055506020820151816001019081610bef9190612a94565b506040820151816002019081610c059190612a94565b506060820151816003019081610c1b9190612a94565b506080820151816004019081610c319190612a94565b5050505050505050565b428311610c7d576040517f08c379a0000000000000000000000000000000000000000000000000000000008152600401610c7490612bd8565b60405180910390fd5b60008111610cc0576040517f08c379a0000000000000000000000000000000000000000000000000000000008152600401610cb790612c6a565b60405180910390fd5b60026040518061010001604052803373ffffffffffffffffffffffffffffffffffffffff16815260200188815260200187815260200186815260200185815260200184815260200183815260200183815250908060018154018082558091505060019003906000526020600020906008020160009091909190915060008201518160000160006101000a81548173ffffffffffffffffffffffffffffffffffffffff021916908373ffffffffffffffffffffffffffffffffffffffff1602179055506020820151816001019081610d979190612a94565b506040820151816002019081610dad9190612a94565b506060820151816003019081610dc39190612a94565b506080820151816004015560a0820151816005015560c0820151816006015560e082015181600701555050505050505050565b60606004805480602002602001604051908101604052809291908181526020016000905b82821015610f9e57838290600052602060002090600502016040518060a0016040529081600082018054610e4d906127a5565b80601f0160208091040260200160405190810160405280929190818152602001828054610e79906127a5565b8015610ec65780601f10610e9b57610100808354040283529160200191610ec6565b820191906000526020600020905b815481529060010190602001808311610ea957829003601f168201915b505050505081526020016001820160009054906101000a900473ffffffffffffffffffffffffffffffffffffffff1673ffffffffffffffffffffffffffffffffffffffff1673ffffffffffffffffffffffffffffffffffffffff1681526020016002820160009054906101000a900473ffffffffffffffffffffffffffffffffffffffff1673ffffffffffffffffffffffffffffffffffffffff1673ffffffffffffffffffffffffffffffffffffffff1681526020016003820154815260200160048201548152505081526020019060010190610e1a565b50505050905090565b60048181548110610fb757600080fd5b9060005260206000209060050201600091509050806000018054610fda906127a5565b80601f0160208091040260200160405190810160405280929190818152602001828054611006906127a5565b80156110535780601f1061102857610100808354040283529160200191611053565b820191906000526020600020905b81548152906001019060200180831161103657829003601f168201915b5050505050908060010160009054906101000a900473ffffffffffffffffffffffffffffffffffffffff16908060020160009054906101000a900473ffffffffffffffffffffffffffffffffffffffff16908060030154908060040154905085565b600381815481106110c557600080fd5b90600052602060002090600502016000915090508060000160009054906101000a900473ffffffffffffffffffffffffffffffffffffffff169080600101805461110e906127a5565b80601f016020809104026020016040519081016040528092919081815260200182805461113a906127a5565b80156111875780601f1061115c57610100808354040283529160200191611187565b820191906000526020600020905b81548152906001019060200180831161116a57829003601f168201915b50505050509080600201805461119c906127a5565b80601f01602080910402602001604051908101604052809291908181526020018280546111c8906127a5565b80156112155780601f106111ea57610100808354040283529160200191611215565b820191906000526020600020905b8154815290600101906020018083116111f857829003601f168201915b50505050509080600301805461122a906127a5565b80601f0160208091040260200160405190810160405280929190818152602001828054611256906127a5565b80156112a35780601f10611278576101008083540402835291602001916112a3565b820191906000526020600020905b81548152906001019060200180831161128657829003601f168201915b5050505050908060040180546112b8906127a5565b80601f01602080910402602001604051908101604052809291908181526020018280546112e4906127a5565b80156113315780601f1061130657610100808354040283529160200191611331565b820191906000526020600020905b81548152906001019060200180831161131457829003601f168201915b5050505050905085565b600060028481548110611351576113506127d6565b5b906000526020600020906008020160040154036113a3576040517f08c379a000000000000000000000000000000000000000000000000000000000815260040161139a90612cd6565b60405180910390fd5b42600284815481106113b8576113b76127d6565b5b9060005260206000209060080201600401541161140a576040517f08c379a000000000000000000000000000000000000000000000000000000000815260040161140190612d42565b60405180910390fd5b6000821161144d576040517f08c379a000000000000000000000000000000000000000000000000000000000815260040161144490612dae565b60405180910390fd5b60058210611490576040517f08c379a000000000000000000000000000000000000000000000000000000000815260040161148790612e40565b60405180910390fd5b6000600284815481106114a6576114a56127d6565b5b9060005260206000209060080201905082816007015410156114fd576040517f08c379a00000000000000000000000000000000000000000000000000000000081526004016114f490612eac565b60405180910390fd5b828160070160008282546115119190612ecc565b9250508190555082600160003373ffffffffffffffffffffffffffffffffffffffff1673ffffffffffffffffffffffffffffffffffffffff168152602001908152602001600020600086815260200190815260200160002060008282546115789190612f00565b9250508190555060046040518060a0016040528083600101805461159b906127a5565b80601f01602080910402602001604051908101604052809291908181526020018280546115c7906127a5565b80156116145780601f106115e957610100808354040283529160200191611614565b820191906000526020600020905b8154815290600101906020018083116115f757829003601f168201915b505050505081526020013373ffffffffffffffffffffffffffffffffffffffff1681526020018360000160009054906101000a900473ffffffffffffffffffffffffffffffffffffffff1673ffffffffffffffffffffffffffffffffffffffff16815260200184815260200185815250908060018154018082558091505060019003906000526020600020906005020160009091909190915060008201518160000190816116c29190612a94565b5060208201518160010160006101000a81548173ffffffffffffffffffffffffffffffffffffffff021916908373ffffffffffffffffffffffffffffffffffffffff16021790555060408201518160020160006101000a81548173ffffffffffffffffffffffffffffffffffffffff021916908373ffffffffffffffffffffffffffffffffffffffff1602179055506060820151816003015560808201518160040155505060008054906101000a900473ffffffffffffffffffffffffffffffffffffffff1673ffffffffffffffffffffffffffffffffffffffff166108fc349081150290604051600060405180830381858888f193505050501580156117cd573d6000803e3d6000fd5b5050505050565b6001602052816000526040600020602052806000526040600020600091509150505481565b60606003805480602002602001604051908101604052809291908181526020016000905b82821015611aed57838290600052602060002090600502016040518060a00160405290816000820160009054906101000a900473ffffffffffffffffffffffffffffffffffffffff1673ffffffffffffffffffffffffffffffffffffffff1673ffffffffffffffffffffffffffffffffffffffff1681526020016001820180546118a6906127a5565b80601f01602080910402602001604051908101604052809291908181526020018280546118d2906127a5565b801561191f5780601f106118f45761010080835404028352916020019161191f565b820191906000526020600020905b81548152906001019060200180831161190257829003601f168201915b50505050508152602001600282018054611938906127a5565b80601f0160208091040260200160405190810160405280929190818152602001828054611964906127a5565b80156119b15780601f10611986576101008083540402835291602001916119b1565b820191906000526020600020905b81548152906001019060200180831161199457829003601f168201915b505050505081526020016003820180546119ca906127a5565b80601f01602080910402602001604051908101604052809291908181526020018280546119f6906127a5565b8015611a435780601f10611a1857610100808354040283529160200191611a43565b820191906000526020600020905b815481529060010190602001808311611a2657829003601f168201915b50505050508152602001600482018054611a5c906127a5565b80601f0160208091040260200160405190810160405280929190818152602001828054611a88906127a5565b8015611ad55780601f10611aaa57610100808354040283529160200191611ad5565b820191906000526020600020905b815481529060010190602001808311611ab857829003601f168201915b5050505050815250508152602001906001019061181d565b50505050905090565b6040518060a00160405280600073ffffffffffffffffffffffffffffffffffffffff168152602001606081526020016060815260200160608152602001606081525090565b6000604051905090565b600080fd5b600080fd5b6000819050919050565b611b6281611b4f565b8114611b6d57600080fd5b50565b600081359050611b7f81611b59565b92915050565b600060208284031215611b9b57611b9a611b45565b5b6000611ba984828501611b70565b91505092915050565b600073ffffffffffffffffffffffffffffffffffffffff82169050919050565b6000611bdd82611bb2565b9050919050565b611bed81611bd2565b82525050565b600081519050919050565b600082825260208201905092915050565b60005b83811015611c2d578082015181840152602081019050611c12565b60008484015250505050565b6000601f19601f8301169050919050565b6000611c5582611bf3565b611c5f8185611bfe565b9350611c6f818560208601611c0f565b611c7881611c39565b840191505092915050565b611c8c81611b4f565b82525050565b600061010082019050611ca8600083018b611be4565b8181036020830152611cba818a611c4a565b90508181036040830152611cce8189611c4a565b90508181036060830152611ce28188611c4a565b9050611cf16080830187611c83565b611cfe60a0830186611c83565b611d0b60c0830185611c83565b611d1860e0830184611c83565b9998505050505050505050565b611d2e81611bd2565b8114611d3957600080fd5b50565b600081359050611d4b81611d25565b92915050565b600060208284031215611d6757611d66611b45565b5b6000611d7584828501611d3c565b91505092915050565b611d8781611bd2565b82525050565b600082825260208201905092915050565b6000611da982611bf3565b611db38185611d8d565b9350611dc3818560208601611c0f565b611dcc81611c39565b840191505092915050565b600060a083016000830151611def6000860182611d7e565b5060208301518482036020860152611e078282611d9e565b91505060408301518482036040860152611e218282611d9e565b91505060608301518482036060860152611e3b8282611d9e565b91505060808301518482036080860152611e558282611d9e565b9150508091505092915050565b60006020820190508181036000830152611e7c8184611dd7565b905092915050565b600081519050919050565b600082825260208201905092915050565b6000819050602082019050919050565b611eb981611b4f565b82525050565b600061010083016000830151611ed86000860182611d7e565b5060208301518482036020860152611ef08282611d9e565b91505060408301518482036040860152611f0a8282611d9e565b91505060608301518482036060860152611f248282611d9e565b9150506080830151611f396080860182611eb0565b5060a0830151611f4c60a0860182611eb0565b5060c0830151611f5f60c0860182611eb0565b5060e0830151611f7260e0860182611eb0565b508091505092915050565b6000611f898383611ebf565b905092915050565b6000602082019050919050565b6000611fa982611e84565b611fb38185611e8f565b935083602082028501611fc585611ea0565b8060005b858110156120015784840389528151611fe28582611f7d565b9450611fed83611f91565b925060208a01995050600181019050611fc9565b50829750879550505050505092915050565b6000602082019050818103600083015261202d8184611f9e565b905092915050565b600080fd5b600080fd5b7f4e487b7100000000000000000000000000000000000000000000000000000000600052604160045260246000fd5b61207782611c39565b810181811067ffffffffffffffff821117156120965761209561203f565b5b80604052505050565b60006120a9611b3b565b90506120b5828261206e565b919050565b600067ffffffffffffffff8211156120d5576120d461203f565b5b6120de82611c39565b9050602081019050919050565b82818337600083830152505050565b600061210d612108846120ba565b61209f565b9050828152602081018484840111156121295761212861203a565b5b6121348482856120eb565b509392505050565b600082601f83011261215157612150612035565b5b81356121618482602086016120fa565b91505092915050565b600080600080600060a0868803121561218657612185611b45565b5b600061219488828901611d3c565b955050602086013567ffffffffffffffff8111156121b5576121b4611b4a565b5b6121c18882890161213c565b945050604086013567ffffffffffffffff8111156121e2576121e1611b4a565b5b6121ee8882890161213c565b935050606086013567ffffffffffffffff81111561220f5761220e611b4a565b5b61221b8882890161213c565b925050608086013567ffffffffffffffff81111561223c5761223b611b4a565b5b6122488882890161213c565b9150509295509295909350565b60008060008060008060c0878903121561227257612271611b45565b5b600087013567ffffffffffffffff8111156122905761228f611b4a565b5b61229c89828a0161213c565b965050602087013567ffffffffffffffff8111156122bd576122bc611b4a565b5b6122c989828a0161213c565b955050604087013567ffffffffffffffff8111156122ea576122e9611b4a565b5b6122f689828a0161213c565b945050606061230789828a01611b70565b935050608061231889828a01611b70565b92505060a061232989828a01611b70565b9150509295509295509295565b600081519050919050565b600082825260208201905092915050565b6000819050602082019050919050565b600060a083016000830151848203600086015261237f8282611d9e565b91505060208301516123946020860182611d7e565b5060408301516123a76040860182611d7e565b5060608301516123ba6060860182611eb0565b5060808301516123cd6080860182611eb0565b508091505092915050565b60006123e48383612362565b905092915050565b6000602082019050919050565b600061240482612336565b61240e8185612341565b93508360208202850161242085612352565b8060005b8581101561245c578484038952815161243d85826123d8565b9450612448836123ec565b925060208a01995050600181019050612424565b50829750879550505050505092915050565b6000602082019050818103600083015261248881846123f9565b905092915050565b600060a08201905081810360008301526124aa8188611c4a565b90506124b96020830187611be4565b6124c66040830186611be4565b6124d36060830185611c83565b6124e06080830184611c83565b9695505050505050565b600060a0820190506124ff6000830188611be4565b81810360208301526125118187611c4a565b905081810360408301526125258186611c4a565b905081810360608301526125398185611c4a565b9050818103608083015261254d8184611c4a565b90509695505050505050565b60008060006060848603121561257257612571611b45565b5b600061258086828701611b70565b935050602061259186828701611b70565b92505060406125a286828701611b70565b9150509250925092565b600080604083850312156125c3576125c2611b45565b5b60006125d185828601611d3c565b92505060206125e285828601611b70565b9150509250929050565b60006020820190506126016000830184611c83565b92915050565b600081519050919050565b600082825260208201905092915050565b6000819050602082019050919050565b600060a08301600083015161264b6000860182611d7e565b50602083015184820360208601526126638282611d9e565b9150506040830151848203604086015261267d8282611d9e565b915050606083015184820360608601526126978282611d9e565b915050608083015184820360808601526126b18282611d9e565b9150508091505092915050565b60006126ca8383612633565b905092915050565b6000602082019050919050565b60006126ea82612607565b6126f48185612612565b93508360208202850161270685612623565b8060005b85811015612742578484038952815161272385826126be565b945061272e836126d2565b925060208a0199505060018101905061270a565b50829750879550505050505092915050565b6000602082019050818103600083015261276e81846126df565b905092915050565b7f4e487b7100000000000000000000000000000000000000000000000000000000600052602260045260246000fd5b600060028204905060018216806127bd57607f821691505b6020821081036127d0576127cf612776565b5b50919050565b7f4e487b7100000000000000000000000000000000000000000000000000000000600052603260045260246000fd5b7f4e487b7100000000000000000000000000000000000000000000000000000000600052601160045260246000fd5b600061283f82611b4f565b91507fffffffffffffffffffffffffffffffffffffffffffffffffffffffffffffffff820361287157612870612805565b5b600182019050919050565b7f537472756374206e6f7420666f756e6400000000000000000000000000000000600082015250565b60006128b2601083611bfe565b91506128bd8261287c565b602082019050919050565b600060208201905081810360008301526128e1816128a5565b9050919050565b60008190508160005260206000209050919050565b60006020601f8301049050919050565b600082821b905092915050565b60006008830261294a7fffffffffffffffffffffffffffffffffffffffffffffffffffffffffffffffff8261290d565b612954868361290d565b95508019841693508086168417925050509392505050565b6000819050919050565b600061299161298c61298784611b4f565b61296c565b611b4f565b9050919050565b6000819050919050565b6129ab83612976565b6129bf6129b782612998565b84845461291a565b825550505050565b600090565b6129d46129c7565b6129df8184846129a2565b505050565b5b81811015612a03576129f86000826129cc565b6001810190506129e5565b5050565b601f821115612a4857612a19816128e8565b612a22846128fd565b81016020851015612a31578190505b612a45612a3d856128fd565b8301826129e4565b50505b505050565b600082821c905092915050565b6000612a6b60001984600802612a4d565b1980831691505092915050565b6000612a848383612a5a565b9150826002028217905092915050565b612a9d82611bf3565b67ffffffffffffffff811115612ab657612ab561203f565b5b612ac082546127a5565b612acb828285612a07565b600060209050601f831160018114612afe5760008415612aec578287015190505b612af68582612a78565b865550612b5e565b601f198416612b0c866128e8565b60005b82811015612b3457848901518255600182019150602085019450602081019050612b0f565b86831015612b515784890151612b4d601f891682612a5a565b8355505b6001600288020188555050505b505050505050565b7f596f752063616e206f7267616e697a65206576656e7420666f7220667574757260008201527f6520646174650000000000000000000000000000000000000000000000000000602082015250565b6000612bc2602683611bfe565b9150612bcd82612b66565b604082019050919050565b60006020820190508181036000830152612bf181612bb5565b9050919050565b7f596f752063616e206f7267616e697a65206576656e74206f6e6c79206966207960008201527f6f7520637265617465206d6f7265207468616e2030207469636b657473000000602082015250565b6000612c54603d83611bfe565b9150612c5f82612bf8565b604082019050919050565b60006020820190508181036000830152612c8381612c47565b9050919050565b7f4576656e7420646f6573206e6f74206578697374000000000000000000000000600082015250565b6000612cc0601483611bfe565b9150612ccb82612c8a565b602082019050919050565b60006020820190508181036000830152612cef81612cb3565b9050919050565b7f4576656e742068617320616c7265616479206f63637572656400000000000000600082015250565b6000612d2c601983611bfe565b9150612d3782612cf6565b602082019050919050565b60006020820190508181036000830152612d5b81612d1f565b9050919050565b7f436f756e742063616e6e6f74206265207a65726f000000000000000000000000600082015250565b6000612d98601483611bfe565b9150612da382612d62565b602082019050919050565b60006020820190508181036000830152612dc781612d8b565b9050919050565b7f596f752063616e6e6f7420627579206d6f7265207468616e2034207469636b6560008201527f7473000000000000000000000000000000000000000000000000000000000000602082015250565b6000612e2a602283611bfe565b9150612e3582612dce565b604082019050919050565b60006020820190508181036000830152612e5981612e1d565b9050919050565b7f4e6f7420656e6f756768207469636b6574730000000000000000000000000000600082015250565b6000612e96601283611bfe565b9150612ea182612e60565b602082019050919050565b60006020820190508181036000830152612ec581612e89565b9050919050565b6000612ed782611b4f565b9150612ee283611b4f565b9250828203905081811115612efa57612ef9612805565b5b92915050565b6000612f0b82611b4f565b9150612f1683611b4f565b9250828201905080821115612f2e57612f2d612805565b5b9291505056fea264697066735822122030b58663f3209ae6b3bcd63d414ff3e37042416ed12850477afe1b36d55d9d3d64736f6c63430008110033",
  "immutableReferences": {},
  "source": "//SPDX-License-Identifier: Unlicense\npragma solidity >=0.5.0 <0.9.0;\n\n\ncontract Ticketing {\n\n address payable owner;\nmapping(address=>mapping(uint=>uint)) public tickets;\n\n// Create Structure for Event.........\n struct Event{\n   address organizer;\n   string brandName;\n   string starting;\n   string destination;\n   uint date;\n   uint price;\n   uint ticketCount;\n   uint ticketRemain;\n }\n\n// Create Structure for Transactions......\n struct Transaction {\n     string brandName;\n     address buyer;\n     address seller;\n     uint paid;\n     uint quantity;\n }\n\n// Create Structure for Profile..................\nstruct Profile {\n    address userAccount;\n    string name;\n    string email;\n    string phone;\n    string pic;\n}\n\n\n// Defining the owner in the deploy time.........\n constructor() {\n     owner = payable(msg.sender);\n }\n\n// Creating Structure arrays.......\nEvent[] public events;\nProfile[] public profiles;\nTransaction[] public transactions;\n\n\n//Create a new Events..........\n function createEvent(string memory brandName, string memory starting, string memory destination, uint date, uint price, uint ticketCount) external{\n   require(date>block.timestamp,\"You can organize event for future date\");\n   require(ticketCount>0,\"You can organize event only if you create more than 0 tickets\");\n\n   events.push(Event(msg.sender, brandName, starting, destination, date, price, ticketCount, ticketCount));\n }\n\n// Buying a ticket and make the transactions.........\n function buyTicket(uint id, uint quantity, uint amount) external payable {\n   require(events[id].date!=0,\"Event does not exist\");\n   require(events[id].date>block.timestamp,\"Event has already occured\");\n   require(quantity>0, \"Count cannot be zero\");\n   require(quantity<5, \"You cannot buy more than 4 tickets\");\n   Event storage _event = events[id];\n   require(_event.ticketRemain>=quantity,\"Not enough tickets\");\n   _event.ticketRemain-=quantity;\n   tickets[msg.sender][id]+=quantity;\n   transactions.push(Transaction(_event.brandName, msg.sender,_event.organizer, amount, quantity));\n   owner.transfer(msg.value);\n }\n\n function getEvents() public view returns(Event[] memory) {\n     return events;\n }\n\n function getTransactions() public view returns(Transaction[] memory) {\n     return transactions;\n }\n\n function createProfile(address _userAccount, string memory _name, string memory _email, string memory _phone,string memory _pic) public{\n     profiles.push(Profile(_userAccount,_name, _email, _phone,_pic));\n }\n\n function allProfiles()public view returns(Profile[] memory){\n     return profiles;\n\n }\n\n function getProfile(address _userAccount) public view returns(Profile memory){\n     for(uint i=0; i<profiles.length; i++){\n         if(profiles[i].userAccount == _userAccount){\n             return profiles[i];\n         }\n     }\n    revert(\"Struct not found\");\n }\n\n}",
  "sourcePath": "/home/shanto/Downloads/project_350/frontend/contracts/Ticketing.sol",
  "compiler": {
    "name": "solc",
    "version": "0.8.17+commit.8df45f5f.Emscripten.clang"
  },
  "schemaVersion": "3.4.10",
  "updatedAt": "2023-03-08T00:53:27.432Z",
  "networkType": "ethereum",
  "devdoc": {
    "kind": "dev",
    "methods": {},
    "version": 1
  },
  "userdoc": {
    "kind": "user",
    "methods": {},
    "version": 1
  }
}